{
	"Expensive operations/Pattern 11_3/optimized code 11_3.sol": {
		"C": {
			"abi": [
				{
					"inputs": [],
					"name": "p11",
					"outputs": [],
					"stateMutability": "view",
					"type": "function"
				}
			],
			"devdoc": {
				"kind": "dev",
				"methods": {},
				"version": 1
			},
			"evm": {
				"assembly": "    /* \"Expensive operations/Pattern 11_3/optimized code 11_3.sol\":45:217  contract C {... */\n  mstore(0x40, 0x80)\n    /* \"Expensive operations/Pattern 11_3/optimized code 11_3.sol\":85:88  100 */\n  0x64\n    /* \"Expensive operations/Pattern 11_3/optimized code 11_3.sol\":74:89  new uint[](100) */\n  0xffffffffffffffff\n  dup2\n  gt\n  iszero\n  tag_1\n  jumpi\n  tag_2\n  tag_3\n  jump\t// in\ntag_2:\ntag_1:\n  mload(0x40)\n  swap1\n  dup1\n  dup3\n  mstore\n  dup1\n  0x20\n  mul\n  0x20\n  add\n  dup3\n  add\n  0x40\n  mstore\n  dup1\n  iszero\n  tag_4\n  jumpi\n  dup2\n  0x20\n  add\n  0x20\n  dup3\n  mul\n  dup1\n  calldatasize\n  dup4\n  calldatacopy\n  dup1\n  dup3\n  add\n  swap2\n  pop\n  pop\n  swap1\n  pop\ntag_4:\n  pop\n    /* \"Expensive operations/Pattern 11_3/optimized code 11_3.sol\":63:89  uint[] x = new uint[](100) */\n  0x00\n  swap1\n  dup1\n  mload\n  swap1\n  0x20\n  add\n  swap1\n  tag_5\n  swap3\n  swap2\n  swap1\n  tag_6\n  jump\t// in\ntag_5:\n  pop\n    /* \"Expensive operations/Pattern 11_3/optimized code 11_3.sol\":45:217  contract C {... */\n  callvalue\n  dup1\n  iszero\n  tag_7\n  jumpi\n  revert(0x00, 0x00)\ntag_7:\n  pop\n  jump(tag_8)\ntag_6:\n  dup3\n  dup1\n  sload\n  dup3\n  dup3\n  sstore\n  swap1\n  0x00\n  mstore\n  keccak256(0x00, 0x20)\n  swap1\n  dup2\n  add\n  swap3\n  dup3\n  iszero\n  tag_9\n  jumpi\n  swap2\n  0x20\n  mul\n  dup3\n  add\ntag_10:\n  dup3\n  dup2\n  gt\n  iszero\n  tag_11\n  jumpi\n  dup3\n  mload\n  dup3\n  sstore\n  swap2\n  0x20\n  add\n  swap2\n  swap1\n  0x01\n  add\n  swap1\n  jump(tag_10)\ntag_11:\ntag_9:\n  pop\n  swap1\n  pop\n  tag_12\n  swap2\n  swap1\n  tag_13\n  jump\t// in\ntag_12:\n  pop\n  swap1\n  jump\t// out\ntag_13:\ntag_14:\n  dup1\n  dup3\n  gt\n  iszero\n  tag_15\n  jumpi\n  0x00\n  dup2\n  0x00\n  swap1\n  sstore\n  pop\n  0x01\n  add\n  jump(tag_14)\ntag_15:\n  pop\n  swap1\n  jump\t// out\n    /* \"#utility.yul\":7:187   */\ntag_3:\n    /* \"#utility.yul\":55:132   */\n  0x4e487b7100000000000000000000000000000000000000000000000000000000\n    /* \"#utility.yul\":52:53   */\n  0x00\n    /* \"#utility.yul\":45:133   */\n  mstore\n    /* \"#utility.yul\":152:156   */\n  0x41\n    /* \"#utility.yul\":149:150   */\n  0x04\n    /* \"#utility.yul\":142:157   */\n  mstore\n    /* \"#utility.yul\":176:180   */\n  0x24\n    /* \"#utility.yul\":173:174   */\n  0x00\n    /* \"#utility.yul\":166:181   */\n  revert\n    /* \"Expensive operations/Pattern 11_3/optimized code 11_3.sol\":45:217  contract C {... */\ntag_8:\n  dataSize(sub_0)\n  dup1\n  dataOffset(sub_0)\n  0x00\n  codecopy\n  0x00\n  return\nstop\n\nsub_0: assembly {\n        /* \"Expensive operations/Pattern 11_3/optimized code 11_3.sol\":45:217  contract C {... */\n      mstore(0x40, 0x80)\n      callvalue\n      dup1\n      iszero\n      tag_1\n      jumpi\n      revert(0x00, 0x00)\n    tag_1:\n      pop\n      jumpi(tag_2, lt(calldatasize, 0x04))\n      shr(0xe0, calldataload(0x00))\n      dup1\n      0x141cdd65\n      eq\n      tag_3\n      jumpi\n    tag_2:\n      revert(0x00, 0x00)\n        /* \"Expensive operations/Pattern 11_3/optimized code 11_3.sol\":98:214  function p11() public view {... */\n    tag_3:\n      tag_4\n      tag_5\n      jump\t// in\n    tag_4:\n      stop\n    tag_5:\n        /* \"Expensive operations/Pattern 11_3/optimized code 11_3.sol\":137:143  uint y */\n      0x00\n        /* \"Expensive operations/Pattern 11_3/optimized code 11_3.sol\":146:147  x */\n      0x00\n        /* \"Expensive operations/Pattern 11_3/optimized code 11_3.sol\":146:154  x.length */\n      dup1\n      sload\n      swap1\n      pop\n        /* \"Expensive operations/Pattern 11_3/optimized code 11_3.sol\":137:154  uint y = x.length */\n      swap1\n      pop\n        /* \"Expensive operations/Pattern 11_3/optimized code 11_3.sol\":171:177  uint i */\n      0x00\n        /* \"Expensive operations/Pattern 11_3/optimized code 11_3.sol\":180:181  0 */\n      0x00\n        /* \"Expensive operations/Pattern 11_3/optimized code 11_3.sol\":171:181  uint i = 0 */\n      swap1\n      pop\n        /* \"Expensive operations/Pattern 11_3/optimized code 11_3.sol\":166:207  for (uint i = 0; i < y; i++){... */\n    tag_7:\n        /* \"Expensive operations/Pattern 11_3/optimized code 11_3.sol\":187:188  y */\n      dup2\n        /* \"Expensive operations/Pattern 11_3/optimized code 11_3.sol\":183:184  i */\n      dup2\n        /* \"Expensive operations/Pattern 11_3/optimized code 11_3.sol\":183:188  i < y */\n      lt\n        /* \"Expensive operations/Pattern 11_3/optimized code 11_3.sol\":166:207  for (uint i = 0; i < y; i++){... */\n      iszero\n      tag_8\n      jumpi\n        /* \"Expensive operations/Pattern 11_3/optimized code 11_3.sol\":190:193  i++ */\n      dup1\n      dup1\n      0x01\n      add\n      swap2\n      pop\n      pop\n        /* \"Expensive operations/Pattern 11_3/optimized code 11_3.sol\":166:207  for (uint i = 0; i < y; i++){... */\n      jump(tag_7)\n    tag_8:\n      pop\n        /* \"Expensive operations/Pattern 11_3/optimized code 11_3.sol\":125:214  {... */\n      pop\n        /* \"Expensive operations/Pattern 11_3/optimized code 11_3.sol\":98:214  function p11() public view {... */\n      jump\t// out\n\n    auxdata: 0xa26469706673582212202359025e171b50f37e0d3476d3a4694e2ca9127659bc40a948bd7f417bc205d464736f6c634300081e0033\n}\n",
				"bytecode": {
					"linkReferences": {},
					"object": "6080604052606467ffffffffffffffff81111561001f5761001e6100da565b5b60405190808252806020026020018201604052801561004d5781602001602082028036833780820191505090505b505f9080519060200190610062929190610074565b5034801561006e575f5ffd5b50610107565b828054828255905f5260205f209081019282156100ae579160200282015b828111156100ad578251825591602001919060010190610092565b5b5090506100bb91906100bf565b5090565b5b808211156100d6575f815f9055506001016100c0565b5090565b7f4e487b71000000000000000000000000000000000000000000000000000000005f52604160045260245ffd5b608c806101135f395ff3fe6080604052348015600e575f5ffd5b50600436106026575f3560e01c8063141cdd6514602a575b5f5ffd5b60306032565b005b5f5f8054905090505f5f90505b818110156052578080600101915050603f565b505056fea26469706673582212202359025e171b50f37e0d3476d3a4694e2ca9127659bc40a948bd7f417bc205d464736f6c634300081e0033",
					"opcodes": "PUSH1 0x80 PUSH1 0x40 MSTORE PUSH1 0x64 PUSH8 0xFFFFFFFFFFFFFFFF DUP2 GT ISZERO PUSH2 0x1F JUMPI PUSH2 0x1E PUSH2 0xDA JUMP JUMPDEST JUMPDEST PUSH1 0x40 MLOAD SWAP1 DUP1 DUP3 MSTORE DUP1 PUSH1 0x20 MUL PUSH1 0x20 ADD DUP3 ADD PUSH1 0x40 MSTORE DUP1 ISZERO PUSH2 0x4D JUMPI DUP2 PUSH1 0x20 ADD PUSH1 0x20 DUP3 MUL DUP1 CALLDATASIZE DUP4 CALLDATACOPY DUP1 DUP3 ADD SWAP2 POP POP SWAP1 POP JUMPDEST POP PUSH0 SWAP1 DUP1 MLOAD SWAP1 PUSH1 0x20 ADD SWAP1 PUSH2 0x62 SWAP3 SWAP2 SWAP1 PUSH2 0x74 JUMP JUMPDEST POP CALLVALUE DUP1 ISZERO PUSH2 0x6E JUMPI PUSH0 PUSH0 REVERT JUMPDEST POP PUSH2 0x107 JUMP JUMPDEST DUP3 DUP1 SLOAD DUP3 DUP3 SSTORE SWAP1 PUSH0 MSTORE PUSH1 0x20 PUSH0 KECCAK256 SWAP1 DUP2 ADD SWAP3 DUP3 ISZERO PUSH2 0xAE JUMPI SWAP2 PUSH1 0x20 MUL DUP3 ADD JUMPDEST DUP3 DUP2 GT ISZERO PUSH2 0xAD JUMPI DUP3 MLOAD DUP3 SSTORE SWAP2 PUSH1 0x20 ADD SWAP2 SWAP1 PUSH1 0x1 ADD SWAP1 PUSH2 0x92 JUMP JUMPDEST JUMPDEST POP SWAP1 POP PUSH2 0xBB SWAP2 SWAP1 PUSH2 0xBF JUMP JUMPDEST POP SWAP1 JUMP JUMPDEST JUMPDEST DUP1 DUP3 GT ISZERO PUSH2 0xD6 JUMPI PUSH0 DUP2 PUSH0 SWAP1 SSTORE POP PUSH1 0x1 ADD PUSH2 0xC0 JUMP JUMPDEST POP SWAP1 JUMP JUMPDEST PUSH32 0x4E487B7100000000000000000000000000000000000000000000000000000000 PUSH0 MSTORE PUSH1 0x41 PUSH1 0x4 MSTORE PUSH1 0x24 PUSH0 REVERT JUMPDEST PUSH1 0x8C DUP1 PUSH2 0x113 PUSH0 CODECOPY PUSH0 RETURN INVALID PUSH1 0x80 PUSH1 0x40 MSTORE CALLVALUE DUP1 ISZERO PUSH1 0xE JUMPI PUSH0 PUSH0 REVERT JUMPDEST POP PUSH1 0x4 CALLDATASIZE LT PUSH1 0x26 JUMPI PUSH0 CALLDATALOAD PUSH1 0xE0 SHR DUP1 PUSH4 0x141CDD65 EQ PUSH1 0x2A JUMPI JUMPDEST PUSH0 PUSH0 REVERT JUMPDEST PUSH1 0x30 PUSH1 0x32 JUMP JUMPDEST STOP JUMPDEST PUSH0 PUSH0 DUP1 SLOAD SWAP1 POP SWAP1 POP PUSH0 PUSH0 SWAP1 POP JUMPDEST DUP2 DUP2 LT ISZERO PUSH1 0x52 JUMPI DUP1 DUP1 PUSH1 0x1 ADD SWAP2 POP POP PUSH1 0x3F JUMP JUMPDEST POP POP JUMP INVALID LOG2 PUSH5 0x6970667358 0x22 SLT KECCAK256 0x23 MSIZE MUL MCOPY OR SHL POP RETURN PUSH31 0xD3476D3A4694E2CA9127659BC40A948BD7F417BC205D464736F6C63430008 0x1E STOP CALLER "
				},
				"gasEstimates": {
					"creation": {
						"codeDepositCost": "28000",
						"executionCost": "infinite",
						"totalCost": "infinite"
					},
					"external": {
						"p11()": "infinite"
					}
				},
				"methodIdentifiers": {
					"p11()": "141cdd65"
				}
			},
			"storageLayout": {
				"storage": [
					{
						"astId": 9,
						"contract": "Expensive operations/Pattern 11_3/optimized code 11_3.sol:C",
						"label": "x",
						"offset": 0,
						"slot": "0",
						"type": "t_array(t_uint256)dyn_storage"
					}
				],
				"types": {
					"t_array(t_uint256)dyn_storage": {
						"base": "t_uint256",
						"encoding": "dynamic_array",
						"label": "uint256[]",
						"numberOfBytes": "32"
					},
					"t_uint256": {
						"encoding": "inplace",
						"label": "uint256",
						"numberOfBytes": "32"
					}
				}
			},
			"userdoc": {
				"kind": "user",
				"methods": {},
				"version": 1
			}
		}
	}
}