{
	"Use Long Reason String/use_long_reason_string_unoptimized.sol": {
		"A": {
			"abi": [
				{
					"inputs": [
						{
							"internalType": "uint256",
							"name": "balance",
							"type": "uint256"
						},
						{
							"internalType": "uint256",
							"name": "amount",
							"type": "uint256"
						}
					],
					"name": "p4",
					"outputs": [],
					"stateMutability": "nonpayable",
					"type": "function"
				}
			],
			"devdoc": {
				"kind": "dev",
				"methods": {},
				"version": 1
			},
			"evm": {
				"assembly": "    /* \"Use Long Reason String/use_long_reason_string_unoptimized.sol\":47:337  contract A {... */\n  mstore(0x40, 0x80)\n  callvalue\n  dup1\n  iszero\n  tag_1\n  jumpi\n  revert(0x00, 0x00)\ntag_1:\n  pop\n  dataSize(sub_0)\n  dup1\n  dataOffset(sub_0)\n  0x00\n  codecopy\n  0x00\n  return\nstop\n\nsub_0: assembly {\n        /* \"Use Long Reason String/use_long_reason_string_unoptimized.sol\":47:337  contract A {... */\n      mstore(0x40, 0x80)\n      callvalue\n      dup1\n      iszero\n      tag_1\n      jumpi\n      revert(0x00, 0x00)\n    tag_1:\n      pop\n      jumpi(tag_2, lt(calldatasize, 0x04))\n      shr(0xe0, calldataload(0x00))\n      dup1\n      0x93f19628\n      eq\n      tag_3\n      jumpi\n    tag_2:\n      revert(0x00, 0x00)\n        /* \"Use Long Reason String/use_long_reason_string_unoptimized.sol\":65:334  function p4(uint256 balance,uint256 amount )public{... */\n    tag_3:\n      tag_4\n      0x04\n      dup1\n      calldatasize\n      sub\n      dup2\n      add\n      swap1\n      tag_5\n      swap2\n      swap1\n      tag_6\n      jump\t// in\n    tag_5:\n      tag_7\n      jump\t// in\n    tag_4:\n      stop\n    tag_7:\n        /* \"Use Long Reason String/use_long_reason_string_unoptimized.sol\":145:151  amount */\n      dup1\n        /* \"Use Long Reason String/use_long_reason_string_unoptimized.sol\":134:141  balance */\n      dup3\n        /* \"Use Long Reason String/use_long_reason_string_unoptimized.sol\":134:151  balance >= amount */\n      lt\n      iszero\n        /* \"Use Long Reason String/use_long_reason_string_unoptimized.sol\":126:326  require(balance >= amount, \"To whomsoever it may concern. I am writing this error message to let you know that the amount you are trying to transfer is unfortunately more than your current balance. \") */\n      tag_9\n      jumpi\n      mload(0x40)\n      0x08c379a000000000000000000000000000000000000000000000000000000000\n      dup2\n      mstore\n      0x04\n      add\n      tag_10\n      swap1\n      tag_11\n      jump\t// in\n    tag_10:\n      mload(0x40)\n      dup1\n      swap2\n      sub\n      swap1\n      revert\n    tag_9:\n        /* \"Use Long Reason String/use_long_reason_string_unoptimized.sol\":65:334  function p4(uint256 balance,uint256 amount )public{... */\n      pop\n      pop\n      jump\t// out\n        /* \"#utility.yul\":88:205   */\n    tag_13:\n        /* \"#utility.yul\":197:198   */\n      0x00\n        /* \"#utility.yul\":194:195   */\n      0x00\n        /* \"#utility.yul\":187:199   */\n      revert\n        /* \"#utility.yul\":334:411   */\n    tag_15:\n        /* \"#utility.yul\":371:378   */\n      0x00\n        /* \"#utility.yul\":400:405   */\n      dup2\n        /* \"#utility.yul\":389:405   */\n      swap1\n      pop\n        /* \"#utility.yul\":334:411   */\n      swap2\n      swap1\n      pop\n      jump\t// out\n        /* \"#utility.yul\":417:539   */\n    tag_16:\n        /* \"#utility.yul\":490:514   */\n      tag_27\n        /* \"#utility.yul\":508:513   */\n      dup2\n        /* \"#utility.yul\":490:514   */\n      tag_15\n      jump\t// in\n    tag_27:\n        /* \"#utility.yul\":483:488   */\n      dup2\n        /* \"#utility.yul\":480:515   */\n      eq\n        /* \"#utility.yul\":470:533   */\n      tag_28\n      jumpi\n        /* \"#utility.yul\":529:530   */\n      0x00\n        /* \"#utility.yul\":526:527   */\n      0x00\n        /* \"#utility.yul\":519:531   */\n      revert\n        /* \"#utility.yul\":470:533   */\n    tag_28:\n        /* \"#utility.yul\":417:539   */\n      pop\n      jump\t// out\n        /* \"#utility.yul\":545:684   */\n    tag_17:\n        /* \"#utility.yul\":591:596   */\n      0x00\n        /* \"#utility.yul\":629:635   */\n      dup2\n        /* \"#utility.yul\":616:636   */\n      calldataload\n        /* \"#utility.yul\":607:636   */\n      swap1\n      pop\n        /* \"#utility.yul\":645:678   */\n      tag_30\n        /* \"#utility.yul\":672:677   */\n      dup2\n        /* \"#utility.yul\":645:678   */\n      tag_16\n      jump\t// in\n    tag_30:\n        /* \"#utility.yul\":545:684   */\n      swap3\n      swap2\n      pop\n      pop\n      jump\t// out\n        /* \"#utility.yul\":690:1164   */\n    tag_6:\n        /* \"#utility.yul\":758:764   */\n      0x00\n        /* \"#utility.yul\":766:772   */\n      0x00\n        /* \"#utility.yul\":815:817   */\n      0x40\n        /* \"#utility.yul\":803:812   */\n      dup4\n        /* \"#utility.yul\":794:801   */\n      dup6\n        /* \"#utility.yul\":790:813   */\n      sub\n        /* \"#utility.yul\":786:818   */\n      slt\n        /* \"#utility.yul\":783:902   */\n      iszero\n      tag_32\n      jumpi\n        /* \"#utility.yul\":821:900   */\n      tag_33\n      tag_13\n      jump\t// in\n    tag_33:\n        /* \"#utility.yul\":783:902   */\n    tag_32:\n        /* \"#utility.yul\":941:942   */\n      0x00\n        /* \"#utility.yul\":966:1019   */\n      tag_34\n        /* \"#utility.yul\":1011:1018   */\n      dup6\n        /* \"#utility.yul\":1002:1008   */\n      dup3\n        /* \"#utility.yul\":991:1000   */\n      dup7\n        /* \"#utility.yul\":987:1009   */\n      add\n        /* \"#utility.yul\":966:1019   */\n      tag_17\n      jump\t// in\n    tag_34:\n        /* \"#utility.yul\":956:1019   */\n      swap3\n      pop\n        /* \"#utility.yul\":912:1029   */\n      pop\n        /* \"#utility.yul\":1068:1070   */\n      0x20\n        /* \"#utility.yul\":1094:1147   */\n      tag_35\n        /* \"#utility.yul\":1139:1146   */\n      dup6\n        /* \"#utility.yul\":1130:1136   */\n      dup3\n        /* \"#utility.yul\":1119:1128   */\n      dup7\n        /* \"#utility.yul\":1115:1137   */\n      add\n        /* \"#utility.yul\":1094:1147   */\n      tag_17\n      jump\t// in\n    tag_35:\n        /* \"#utility.yul\":1084:1147   */\n      swap2\n      pop\n        /* \"#utility.yul\":1039:1157   */\n      pop\n        /* \"#utility.yul\":690:1164   */\n      swap3\n      pop\n      swap3\n      swap1\n      pop\n      jump\t// out\n        /* \"#utility.yul\":1170:1339   */\n    tag_18:\n        /* \"#utility.yul\":1254:1265   */\n      0x00\n        /* \"#utility.yul\":1288:1294   */\n      dup3\n        /* \"#utility.yul\":1283:1286   */\n      dup3\n        /* \"#utility.yul\":1276:1295   */\n      mstore\n        /* \"#utility.yul\":1328:1332   */\n      0x20\n        /* \"#utility.yul\":1323:1326   */\n      dup3\n        /* \"#utility.yul\":1319:1333   */\n      add\n        /* \"#utility.yul\":1304:1333   */\n      swap1\n      pop\n        /* \"#utility.yul\":1170:1339   */\n      swap3\n      swap2\n      pop\n      pop\n      jump\t// out\n        /* \"#utility.yul\":1345:1852   */\n    tag_19:\n        /* \"#utility.yul\":1485:1519   */\n      0x546f2077686f6d736f65766572206974206d617920636f6e6365726e2e204920\n        /* \"#utility.yul\":1481:1482   */\n      0x00\n        /* \"#utility.yul\":1473:1479   */\n      dup3\n        /* \"#utility.yul\":1469:1483   */\n      add\n        /* \"#utility.yul\":1462:1520   */\n      mstore\n        /* \"#utility.yul\":1554:1588   */\n      0x616d2077726974696e672074686973206572726f72206d65737361676520746f\n        /* \"#utility.yul\":1549:1551   */\n      0x20\n        /* \"#utility.yul\":1541:1547   */\n      dup3\n        /* \"#utility.yul\":1537:1552   */\n      add\n        /* \"#utility.yul\":1530:1589   */\n      mstore\n        /* \"#utility.yul\":1623:1657   */\n      0x206c657420796f75206b6e6f7720746861742074686520616d6f756e7420796f\n        /* \"#utility.yul\":1618:1620   */\n      0x40\n        /* \"#utility.yul\":1610:1616   */\n      dup3\n        /* \"#utility.yul\":1606:1621   */\n      add\n        /* \"#utility.yul\":1599:1658   */\n      mstore\n        /* \"#utility.yul\":1692:1726   */\n      0x752061726520747279696e6720746f207472616e7366657220697320756e666f\n        /* \"#utility.yul\":1687:1689   */\n      0x60\n        /* \"#utility.yul\":1679:1685   */\n      dup3\n        /* \"#utility.yul\":1675:1690   */\n      add\n        /* \"#utility.yul\":1668:1727   */\n      mstore\n        /* \"#utility.yul\":1762:1796   */\n      0x7274756e6174656c79206d6f7265207468616e20796f75722063757272656e74\n        /* \"#utility.yul\":1756:1759   */\n      0x80\n        /* \"#utility.yul\":1748:1754   */\n      dup3\n        /* \"#utility.yul\":1744:1760   */\n      add\n        /* \"#utility.yul\":1737:1797   */\n      mstore\n        /* \"#utility.yul\":1832:1844   */\n      0x2062616c616e63652e2000000000000000000000000000000000000000000000\n        /* \"#utility.yul\":1826:1829   */\n      0xa0\n        /* \"#utility.yul\":1818:1824   */\n      dup3\n        /* \"#utility.yul\":1814:1830   */\n      add\n        /* \"#utility.yul\":1807:1845   */\n      mstore\n        /* \"#utility.yul\":1345:1852   */\n      pop\n      jump\t// out\n        /* \"#utility.yul\":1858:2226   */\n    tag_20:\n        /* \"#utility.yul\":2000:2003   */\n      0x00\n        /* \"#utility.yul\":2021:2089   */\n      tag_39\n        /* \"#utility.yul\":2085:2088   */\n      0xaa\n        /* \"#utility.yul\":2080:2083   */\n      dup4\n        /* \"#utility.yul\":2021:2089   */\n      tag_18\n      jump\t// in\n    tag_39:\n        /* \"#utility.yul\":2014:2089   */\n      swap2\n      pop\n        /* \"#utility.yul\":2098:2191   */\n      tag_40\n        /* \"#utility.yul\":2187:2190   */\n      dup3\n        /* \"#utility.yul\":2098:2191   */\n      tag_19\n      jump\t// in\n    tag_40:\n        /* \"#utility.yul\":2216:2219   */\n      0xc0\n        /* \"#utility.yul\":2211:2214   */\n      dup3\n        /* \"#utility.yul\":2207:2220   */\n      add\n        /* \"#utility.yul\":2200:2220   */\n      swap1\n      pop\n        /* \"#utility.yul\":1858:2226   */\n      swap2\n      swap1\n      pop\n      jump\t// out\n        /* \"#utility.yul\":2232:2651   */\n    tag_11:\n        /* \"#utility.yul\":2398:2402   */\n      0x00\n        /* \"#utility.yul\":2436:2438   */\n      0x20\n        /* \"#utility.yul\":2425:2434   */\n      dup3\n        /* \"#utility.yul\":2421:2439   */\n      add\n        /* \"#utility.yul\":2413:2439   */\n      swap1\n      pop\n        /* \"#utility.yul\":2485:2494   */\n      dup2\n        /* \"#utility.yul\":2479:2483   */\n      dup2\n        /* \"#utility.yul\":2475:2495   */\n      sub\n        /* \"#utility.yul\":2471:2472   */\n      0x00\n        /* \"#utility.yul\":2460:2469   */\n      dup4\n        /* \"#utility.yul\":2456:2473   */\n      add\n        /* \"#utility.yul\":2449:2496   */\n      mstore\n        /* \"#utility.yul\":2513:2644   */\n      tag_42\n        /* \"#utility.yul\":2639:2643   */\n      dup2\n        /* \"#utility.yul\":2513:2644   */\n      tag_20\n      jump\t// in\n    tag_42:\n        /* \"#utility.yul\":2505:2644   */\n      swap1\n      pop\n        /* \"#utility.yul\":2232:2651   */\n      swap2\n      swap1\n      pop\n      jump\t// out\n\n    auxdata: 0xa26469706673582212206533e91f57734b79e97c11b9753c6c10426e4da1b18ef18f41799be2b5e1317864736f6c634300081e0033\n}\n",
				"bytecode": {
					"linkReferences": {},
					"object": "6080604052348015600e575f5ffd5b506102718061001c5f395ff3fe608060405234801561000f575f5ffd5b5060043610610029575f3560e01c806393f196281461002d575b5f5ffd5b610047600480360381019061004291906100c7565b610049565b005b8082101561008c576040517f08c379a00000000000000000000000000000000000000000000000000000000081526004016100839061021d565b60405180910390fd5b5050565b5f5ffd5b5f819050919050565b6100a681610094565b81146100b0575f5ffd5b50565b5f813590506100c18161009d565b92915050565b5f5f604083850312156100dd576100dc610090565b5b5f6100ea858286016100b3565b92505060206100fb858286016100b3565b9150509250929050565b5f82825260208201905092915050565b7f546f2077686f6d736f65766572206974206d617920636f6e6365726e2e2049205f8201527f616d2077726974696e672074686973206572726f72206d65737361676520746f60208201527f206c657420796f75206b6e6f7720746861742074686520616d6f756e7420796f60408201527f752061726520747279696e6720746f207472616e7366657220697320756e666f60608201527f7274756e6174656c79206d6f7265207468616e20796f75722063757272656e7460808201527f2062616c616e63652e200000000000000000000000000000000000000000000060a082015250565b5f61020760aa83610105565b915061021282610115565b60c082019050919050565b5f6020820190508181035f830152610234816101fb565b905091905056fea26469706673582212206533e91f57734b79e97c11b9753c6c10426e4da1b18ef18f41799be2b5e1317864736f6c634300081e0033",
					"opcodes": "PUSH1 0x80 PUSH1 0x40 MSTORE CALLVALUE DUP1 ISZERO PUSH1 0xE JUMPI PUSH0 PUSH0 REVERT JUMPDEST POP PUSH2 0x271 DUP1 PUSH2 0x1C PUSH0 CODECOPY PUSH0 RETURN INVALID PUSH1 0x80 PUSH1 0x40 MSTORE CALLVALUE DUP1 ISZERO PUSH2 0xF JUMPI PUSH0 PUSH0 REVERT JUMPDEST POP PUSH1 0x4 CALLDATASIZE LT PUSH2 0x29 JUMPI PUSH0 CALLDATALOAD PUSH1 0xE0 SHR DUP1 PUSH4 0x93F19628 EQ PUSH2 0x2D JUMPI JUMPDEST PUSH0 PUSH0 REVERT JUMPDEST PUSH2 0x47 PUSH1 0x4 DUP1 CALLDATASIZE SUB DUP2 ADD SWAP1 PUSH2 0x42 SWAP2 SWAP1 PUSH2 0xC7 JUMP JUMPDEST PUSH2 0x49 JUMP JUMPDEST STOP JUMPDEST DUP1 DUP3 LT ISZERO PUSH2 0x8C JUMPI PUSH1 0x40 MLOAD PUSH32 0x8C379A000000000000000000000000000000000000000000000000000000000 DUP2 MSTORE PUSH1 0x4 ADD PUSH2 0x83 SWAP1 PUSH2 0x21D JUMP JUMPDEST PUSH1 0x40 MLOAD DUP1 SWAP2 SUB SWAP1 REVERT JUMPDEST POP POP JUMP JUMPDEST PUSH0 PUSH0 REVERT JUMPDEST PUSH0 DUP2 SWAP1 POP SWAP2 SWAP1 POP JUMP JUMPDEST PUSH2 0xA6 DUP2 PUSH2 0x94 JUMP JUMPDEST DUP2 EQ PUSH2 0xB0 JUMPI PUSH0 PUSH0 REVERT JUMPDEST POP JUMP JUMPDEST PUSH0 DUP2 CALLDATALOAD SWAP1 POP PUSH2 0xC1 DUP2 PUSH2 0x9D JUMP JUMPDEST SWAP3 SWAP2 POP POP JUMP JUMPDEST PUSH0 PUSH0 PUSH1 0x40 DUP4 DUP6 SUB SLT ISZERO PUSH2 0xDD JUMPI PUSH2 0xDC PUSH2 0x90 JUMP JUMPDEST JUMPDEST PUSH0 PUSH2 0xEA DUP6 DUP3 DUP7 ADD PUSH2 0xB3 JUMP JUMPDEST SWAP3 POP POP PUSH1 0x20 PUSH2 0xFB DUP6 DUP3 DUP7 ADD PUSH2 0xB3 JUMP JUMPDEST SWAP2 POP POP SWAP3 POP SWAP3 SWAP1 POP JUMP JUMPDEST PUSH0 DUP3 DUP3 MSTORE PUSH1 0x20 DUP3 ADD SWAP1 POP SWAP3 SWAP2 POP POP JUMP JUMPDEST PUSH32 0x546F2077686F6D736F65766572206974206D617920636F6E6365726E2E204920 PUSH0 DUP3 ADD MSTORE PUSH32 0x616D2077726974696E672074686973206572726F72206D65737361676520746F PUSH1 0x20 DUP3 ADD MSTORE PUSH32 0x206C657420796F75206B6E6F7720746861742074686520616D6F756E7420796F PUSH1 0x40 DUP3 ADD MSTORE PUSH32 0x752061726520747279696E6720746F207472616E7366657220697320756E666F PUSH1 0x60 DUP3 ADD MSTORE PUSH32 0x7274756E6174656C79206D6F7265207468616E20796F75722063757272656E74 PUSH1 0x80 DUP3 ADD MSTORE PUSH32 0x2062616C616E63652E2000000000000000000000000000000000000000000000 PUSH1 0xA0 DUP3 ADD MSTORE POP JUMP JUMPDEST PUSH0 PUSH2 0x207 PUSH1 0xAA DUP4 PUSH2 0x105 JUMP JUMPDEST SWAP2 POP PUSH2 0x212 DUP3 PUSH2 0x115 JUMP JUMPDEST PUSH1 0xC0 DUP3 ADD SWAP1 POP SWAP2 SWAP1 POP JUMP JUMPDEST PUSH0 PUSH1 0x20 DUP3 ADD SWAP1 POP DUP2 DUP2 SUB PUSH0 DUP4 ADD MSTORE PUSH2 0x234 DUP2 PUSH2 0x1FB JUMP JUMPDEST SWAP1 POP SWAP2 SWAP1 POP JUMP INVALID LOG2 PUSH5 0x6970667358 0x22 SLT KECCAK256 PUSH6 0x33E91F57734B PUSH26 0xE97C11B9753C6C10426E4DA1B18EF18F41799BE2B5E131786473 PUSH16 0x6C634300081E00330000000000000000 "
				},
				"gasEstimates": {
					"creation": {
						"codeDepositCost": "125000",
						"executionCost": "169",
						"totalCost": "125169"
					},
					"external": {
						"p4(uint256,uint256)": "infinite"
					}
				},
				"methodIdentifiers": {
					"p4(uint256,uint256)": "93f19628"
				}
			},
			"storageLayout": {
				"storage": [],
				"types": null
			},
			"userdoc": {
				"kind": "user",
				"methods": {},
				"version": 1
			}
		}
	}
}