{
	"One-side conditional execution/unoptimized code One-side conditional execution in loop.sol": {
		"C": {
			"abi": [
				{
					"inputs": [
						{
							"internalType": "uint256",
							"name": "x",
							"type": "uint256"
						},
						{
							"internalType": "uint256",
							"name": "y",
							"type": "uint256"
						}
					],
					"name": "p12",
					"outputs": [],
					"stateMutability": "nonpayable",
					"type": "function"
				}
			],
			"devdoc": {
				"kind": "dev",
				"methods": {},
				"version": 1
			},
			"evm": {
				"assembly": "    /* \"One-side conditional execution/unoptimized code One-side conditional execution in loop.sol\":47:237  contract C {... */\n  mstore(0x40, 0x80)\n  callvalue\n  dup1\n  iszero\n  tag_1\n  jumpi\n  revert(0x00, 0x00)\ntag_1:\n  pop\n  dataSize(sub_0)\n  dup1\n  dataOffset(sub_0)\n  0x00\n  codecopy\n  0x00\n  return\nstop\n\nsub_0: assembly {\n        /* \"One-side conditional execution/unoptimized code One-side conditional execution in loop.sol\":47:237  contract C {... */\n      mstore(0x40, 0x80)\n      callvalue\n      dup1\n      iszero\n      tag_1\n      jumpi\n      revert(0x00, 0x00)\n    tag_1:\n      pop\n      jumpi(tag_2, lt(calldatasize, 0x04))\n      shr(0xe0, calldataload(0x00))\n      dup1\n      0x9a35aa90\n      eq\n      tag_3\n      jumpi\n    tag_2:\n      revert(0x00, 0x00)\n        /* \"One-side conditional execution/unoptimized code One-side conditional execution in loop.sol\":67:234  function p12(uint x,uint y) public {... */\n    tag_3:\n      tag_4\n      0x04\n      dup1\n      calldatasize\n      sub\n      dup2\n      add\n      swap1\n      tag_5\n      swap2\n      swap1\n      tag_6\n      jump\t// in\n    tag_5:\n      tag_7\n      jump\t// in\n    tag_4:\n      stop\n    tag_7:\n        /* \"One-side conditional execution/unoptimized code One-side conditional execution in loop.sol\":117:123  uint i */\n      0x00\n        /* \"One-side conditional execution/unoptimized code One-side conditional execution in loop.sol\":126:127  0 */\n      0x00\n        /* \"One-side conditional execution/unoptimized code One-side conditional execution in loop.sol\":117:127  uint i = 0 */\n      swap1\n      pop\n        /* \"One-side conditional execution/unoptimized code One-side conditional execution in loop.sol\":113:223  for(uint i = 0 ; i < 100 ; i++){... */\n    tag_9:\n        /* \"One-side conditional execution/unoptimized code One-side conditional execution in loop.sol\":134:137  100 */\n      0x64\n        /* \"One-side conditional execution/unoptimized code One-side conditional execution in loop.sol\":130:131  i */\n      dup2\n        /* \"One-side conditional execution/unoptimized code One-side conditional execution in loop.sol\":130:137  i < 100 */\n      lt\n        /* \"One-side conditional execution/unoptimized code One-side conditional execution in loop.sol\":113:223  for(uint i = 0 ; i < 100 ; i++){... */\n      iszero\n      tag_10\n      jumpi\n        /* \"One-side conditional execution/unoptimized code One-side conditional execution in loop.sol\":164:165  0 */\n      0x00\n        /* \"One-side conditional execution/unoptimized code One-side conditional execution in loop.sol\":162:163  x */\n      dup4\n        /* \"One-side conditional execution/unoptimized code One-side conditional execution in loop.sol\":162:165  x>0 */\n      gt\n        /* \"One-side conditional execution/unoptimized code One-side conditional execution in loop.sol\":159:189  if(x>0) ... */\n      iszero\n      tag_12\n      jumpi\n        /* \"One-side conditional execution/unoptimized code One-side conditional execution in loop.sol\":188:189  x */\n      dup3\n        /* \"One-side conditional execution/unoptimized code One-side conditional execution in loop.sol\":185:189  y+=x */\n      dup3\n      tag_13\n      swap2\n      swap1\n      tag_14\n      jump\t// in\n    tag_13:\n      swap2\n      pop\n        /* \"One-side conditional execution/unoptimized code One-side conditional execution in loop.sol\":159:189  if(x>0) ... */\n    tag_12:\n        /* \"One-side conditional execution/unoptimized code One-side conditional execution in loop.sol\":208:211  x-- */\n      dup3\n      dup1\n      tag_15\n      swap1\n      tag_16\n      jump\t// in\n    tag_15:\n      swap4\n      pop\n      pop\n        /* \"One-side conditional execution/unoptimized code One-side conditional execution in loop.sol\":140:143  i++ */\n      dup1\n      dup1\n      0x01\n      add\n      swap2\n      pop\n      pop\n        /* \"One-side conditional execution/unoptimized code One-side conditional execution in loop.sol\":113:223  for(uint i = 0 ; i < 100 ; i++){... */\n      jump(tag_9)\n    tag_10:\n      pop\n        /* \"One-side conditional execution/unoptimized code One-side conditional execution in loop.sol\":67:234  function p12(uint x,uint y) public {... */\n      pop\n      pop\n      jump\t// out\n        /* \"#utility.yul\":88:205   */\n    tag_18:\n        /* \"#utility.yul\":197:198   */\n      0x00\n        /* \"#utility.yul\":194:195   */\n      0x00\n        /* \"#utility.yul\":187:199   */\n      revert\n        /* \"#utility.yul\":334:411   */\n    tag_20:\n        /* \"#utility.yul\":371:378   */\n      0x00\n        /* \"#utility.yul\":400:405   */\n      dup2\n        /* \"#utility.yul\":389:405   */\n      swap1\n      pop\n        /* \"#utility.yul\":334:411   */\n      swap2\n      swap1\n      pop\n      jump\t// out\n        /* \"#utility.yul\":417:539   */\n    tag_21:\n        /* \"#utility.yul\":490:514   */\n      tag_30\n        /* \"#utility.yul\":508:513   */\n      dup2\n        /* \"#utility.yul\":490:514   */\n      tag_20\n      jump\t// in\n    tag_30:\n        /* \"#utility.yul\":483:488   */\n      dup2\n        /* \"#utility.yul\":480:515   */\n      eq\n        /* \"#utility.yul\":470:533   */\n      tag_31\n      jumpi\n        /* \"#utility.yul\":529:530   */\n      0x00\n        /* \"#utility.yul\":526:527   */\n      0x00\n        /* \"#utility.yul\":519:531   */\n      revert\n        /* \"#utility.yul\":470:533   */\n    tag_31:\n        /* \"#utility.yul\":417:539   */\n      pop\n      jump\t// out\n        /* \"#utility.yul\":545:684   */\n    tag_22:\n        /* \"#utility.yul\":591:596   */\n      0x00\n        /* \"#utility.yul\":629:635   */\n      dup2\n        /* \"#utility.yul\":616:636   */\n      calldataload\n        /* \"#utility.yul\":607:636   */\n      swap1\n      pop\n        /* \"#utility.yul\":645:678   */\n      tag_33\n        /* \"#utility.yul\":672:677   */\n      dup2\n        /* \"#utility.yul\":645:678   */\n      tag_21\n      jump\t// in\n    tag_33:\n        /* \"#utility.yul\":545:684   */\n      swap3\n      swap2\n      pop\n      pop\n      jump\t// out\n        /* \"#utility.yul\":690:1164   */\n    tag_6:\n        /* \"#utility.yul\":758:764   */\n      0x00\n        /* \"#utility.yul\":766:772   */\n      0x00\n        /* \"#utility.yul\":815:817   */\n      0x40\n        /* \"#utility.yul\":803:812   */\n      dup4\n        /* \"#utility.yul\":794:801   */\n      dup6\n        /* \"#utility.yul\":790:813   */\n      sub\n        /* \"#utility.yul\":786:818   */\n      slt\n        /* \"#utility.yul\":783:902   */\n      iszero\n      tag_35\n      jumpi\n        /* \"#utility.yul\":821:900   */\n      tag_36\n      tag_18\n      jump\t// in\n    tag_36:\n        /* \"#utility.yul\":783:902   */\n    tag_35:\n        /* \"#utility.yul\":941:942   */\n      0x00\n        /* \"#utility.yul\":966:1019   */\n      tag_37\n        /* \"#utility.yul\":1011:1018   */\n      dup6\n        /* \"#utility.yul\":1002:1008   */\n      dup3\n        /* \"#utility.yul\":991:1000   */\n      dup7\n        /* \"#utility.yul\":987:1009   */\n      add\n        /* \"#utility.yul\":966:1019   */\n      tag_22\n      jump\t// in\n    tag_37:\n        /* \"#utility.yul\":956:1019   */\n      swap3\n      pop\n        /* \"#utility.yul\":912:1029   */\n      pop\n        /* \"#utility.yul\":1068:1070   */\n      0x20\n        /* \"#utility.yul\":1094:1147   */\n      tag_38\n        /* \"#utility.yul\":1139:1146   */\n      dup6\n        /* \"#utility.yul\":1130:1136   */\n      dup3\n        /* \"#utility.yul\":1119:1128   */\n      dup7\n        /* \"#utility.yul\":1115:1137   */\n      add\n        /* \"#utility.yul\":1094:1147   */\n      tag_22\n      jump\t// in\n    tag_38:\n        /* \"#utility.yul\":1084:1147   */\n      swap2\n      pop\n        /* \"#utility.yul\":1039:1157   */\n      pop\n        /* \"#utility.yul\":690:1164   */\n      swap3\n      pop\n      swap3\n      swap1\n      pop\n      jump\t// out\n        /* \"#utility.yul\":1170:1350   */\n    tag_23:\n        /* \"#utility.yul\":1218:1295   */\n      0x4e487b7100000000000000000000000000000000000000000000000000000000\n        /* \"#utility.yul\":1215:1216   */\n      0x00\n        /* \"#utility.yul\":1208:1296   */\n      mstore\n        /* \"#utility.yul\":1315:1319   */\n      0x11\n        /* \"#utility.yul\":1312:1313   */\n      0x04\n        /* \"#utility.yul\":1305:1320   */\n      mstore\n        /* \"#utility.yul\":1339:1343   */\n      0x24\n        /* \"#utility.yul\":1336:1337   */\n      0x00\n        /* \"#utility.yul\":1329:1344   */\n      revert\n        /* \"#utility.yul\":1356:1547   */\n    tag_14:\n        /* \"#utility.yul\":1396:1399   */\n      0x00\n        /* \"#utility.yul\":1415:1435   */\n      tag_41\n        /* \"#utility.yul\":1433:1434   */\n      dup3\n        /* \"#utility.yul\":1415:1435   */\n      tag_20\n      jump\t// in\n    tag_41:\n        /* \"#utility.yul\":1410:1435   */\n      swap2\n      pop\n        /* \"#utility.yul\":1449:1469   */\n      tag_42\n        /* \"#utility.yul\":1467:1468   */\n      dup4\n        /* \"#utility.yul\":1449:1469   */\n      tag_20\n      jump\t// in\n    tag_42:\n        /* \"#utility.yul\":1444:1469   */\n      swap3\n      pop\n        /* \"#utility.yul\":1492:1493   */\n      dup3\n        /* \"#utility.yul\":1489:1490   */\n      dup3\n        /* \"#utility.yul\":1485:1494   */\n      add\n        /* \"#utility.yul\":1478:1494   */\n      swap1\n      pop\n        /* \"#utility.yul\":1513:1516   */\n      dup1\n        /* \"#utility.yul\":1510:1511   */\n      dup3\n        /* \"#utility.yul\":1507:1517   */\n      gt\n        /* \"#utility.yul\":1504:1540   */\n      iszero\n      tag_43\n      jumpi\n        /* \"#utility.yul\":1520:1538   */\n      tag_44\n      tag_23\n      jump\t// in\n    tag_44:\n        /* \"#utility.yul\":1504:1540   */\n    tag_43:\n        /* \"#utility.yul\":1356:1547   */\n      swap3\n      swap2\n      pop\n      pop\n      jump\t// out\n        /* \"#utility.yul\":1553:1724   */\n    tag_16:\n        /* \"#utility.yul\":1592:1595   */\n      0x00\n        /* \"#utility.yul\":1615:1639   */\n      tag_46\n        /* \"#utility.yul\":1633:1638   */\n      dup3\n        /* \"#utility.yul\":1615:1639   */\n      tag_20\n      jump\t// in\n    tag_46:\n        /* \"#utility.yul\":1606:1639   */\n      swap2\n      pop\n        /* \"#utility.yul\":1661:1665   */\n      0x00\n        /* \"#utility.yul\":1654:1659   */\n      dup3\n        /* \"#utility.yul\":1651:1666   */\n      sub\n        /* \"#utility.yul\":1648:1689   */\n      tag_47\n      jumpi\n        /* \"#utility.yul\":1669:1687   */\n      tag_48\n      tag_23\n      jump\t// in\n    tag_48:\n        /* \"#utility.yul\":1648:1689   */\n    tag_47:\n        /* \"#utility.yul\":1716:1717   */\n      0x01\n        /* \"#utility.yul\":1709:1714   */\n      dup3\n        /* \"#utility.yul\":1705:1718   */\n      sub\n        /* \"#utility.yul\":1698:1718   */\n      swap1\n      pop\n        /* \"#utility.yul\":1553:1724   */\n      swap2\n      swap1\n      pop\n      jump\t// out\n\n    auxdata: 0xa264697066735822122041825c20c797b2d0b1222ef06eadb9434900f8848499f5cf3f2e5ed2c4f6578c64736f6c634300081e0033\n}\n",
				"bytecode": {
					"linkReferences": {},
					"object": "6080604052348015600e575f5ffd5b506101c08061001c5f395ff3fe608060405234801561000f575f5ffd5b5060043610610029575f3560e01c80639a35aa901461002d575b5f5ffd5b610047600480360381019061004291906100c5565b610049565b005b5f5f90505b6064811015610089575f83111561006e57828261006b9190610130565b91505b828061007990610163565b935050808060010191505061004e565b505050565b5f5ffd5b5f819050919050565b6100a481610092565b81146100ae575f5ffd5b50565b5f813590506100bf8161009b565b92915050565b5f5f604083850312156100db576100da61008e565b5b5f6100e8858286016100b1565b92505060206100f9858286016100b1565b9150509250929050565b7f4e487b71000000000000000000000000000000000000000000000000000000005f52601160045260245ffd5b5f61013a82610092565b915061014583610092565b925082820190508082111561015d5761015c610103565b5b92915050565b5f61016d82610092565b91505f820361017f5761017e610103565b5b60018203905091905056fea264697066735822122041825c20c797b2d0b1222ef06eadb9434900f8848499f5cf3f2e5ed2c4f6578c64736f6c634300081e0033",
					"opcodes": "PUSH1 0x80 PUSH1 0x40 MSTORE CALLVALUE DUP1 ISZERO PUSH1 0xE JUMPI PUSH0 PUSH0 REVERT JUMPDEST POP PUSH2 0x1C0 DUP1 PUSH2 0x1C PUSH0 CODECOPY PUSH0 RETURN INVALID PUSH1 0x80 PUSH1 0x40 MSTORE CALLVALUE DUP1 ISZERO PUSH2 0xF JUMPI PUSH0 PUSH0 REVERT JUMPDEST POP PUSH1 0x4 CALLDATASIZE LT PUSH2 0x29 JUMPI PUSH0 CALLDATALOAD PUSH1 0xE0 SHR DUP1 PUSH4 0x9A35AA90 EQ PUSH2 0x2D JUMPI JUMPDEST PUSH0 PUSH0 REVERT JUMPDEST PUSH2 0x47 PUSH1 0x4 DUP1 CALLDATASIZE SUB DUP2 ADD SWAP1 PUSH2 0x42 SWAP2 SWAP1 PUSH2 0xC5 JUMP JUMPDEST PUSH2 0x49 JUMP JUMPDEST STOP JUMPDEST PUSH0 PUSH0 SWAP1 POP JUMPDEST PUSH1 0x64 DUP2 LT ISZERO PUSH2 0x89 JUMPI PUSH0 DUP4 GT ISZERO PUSH2 0x6E JUMPI DUP3 DUP3 PUSH2 0x6B SWAP2 SWAP1 PUSH2 0x130 JUMP JUMPDEST SWAP2 POP JUMPDEST DUP3 DUP1 PUSH2 0x79 SWAP1 PUSH2 0x163 JUMP JUMPDEST SWAP4 POP POP DUP1 DUP1 PUSH1 0x1 ADD SWAP2 POP POP PUSH2 0x4E JUMP JUMPDEST POP POP POP JUMP JUMPDEST PUSH0 PUSH0 REVERT JUMPDEST PUSH0 DUP2 SWAP1 POP SWAP2 SWAP1 POP JUMP JUMPDEST PUSH2 0xA4 DUP2 PUSH2 0x92 JUMP JUMPDEST DUP2 EQ PUSH2 0xAE JUMPI PUSH0 PUSH0 REVERT JUMPDEST POP JUMP JUMPDEST PUSH0 DUP2 CALLDATALOAD SWAP1 POP PUSH2 0xBF DUP2 PUSH2 0x9B JUMP JUMPDEST SWAP3 SWAP2 POP POP JUMP JUMPDEST PUSH0 PUSH0 PUSH1 0x40 DUP4 DUP6 SUB SLT ISZERO PUSH2 0xDB JUMPI PUSH2 0xDA PUSH2 0x8E JUMP JUMPDEST JUMPDEST PUSH0 PUSH2 0xE8 DUP6 DUP3 DUP7 ADD PUSH2 0xB1 JUMP JUMPDEST SWAP3 POP POP PUSH1 0x20 PUSH2 0xF9 DUP6 DUP3 DUP7 ADD PUSH2 0xB1 JUMP JUMPDEST SWAP2 POP POP SWAP3 POP SWAP3 SWAP1 POP JUMP JUMPDEST PUSH32 0x4E487B7100000000000000000000000000000000000000000000000000000000 PUSH0 MSTORE PUSH1 0x11 PUSH1 0x4 MSTORE PUSH1 0x24 PUSH0 REVERT JUMPDEST PUSH0 PUSH2 0x13A DUP3 PUSH2 0x92 JUMP JUMPDEST SWAP2 POP PUSH2 0x145 DUP4 PUSH2 0x92 JUMP JUMPDEST SWAP3 POP DUP3 DUP3 ADD SWAP1 POP DUP1 DUP3 GT ISZERO PUSH2 0x15D JUMPI PUSH2 0x15C PUSH2 0x103 JUMP JUMPDEST JUMPDEST SWAP3 SWAP2 POP POP JUMP JUMPDEST PUSH0 PUSH2 0x16D DUP3 PUSH2 0x92 JUMP JUMPDEST SWAP2 POP PUSH0 DUP3 SUB PUSH2 0x17F JUMPI PUSH2 0x17E PUSH2 0x103 JUMP JUMPDEST JUMPDEST PUSH1 0x1 DUP3 SUB SWAP1 POP SWAP2 SWAP1 POP JUMP INVALID LOG2 PUSH5 0x6970667358 0x22 SLT KECCAK256 COINBASE DUP3 TLOAD KECCAK256 0xC7 SWAP8 0xB2 0xD0 0xB1 0x22 0x2E CREATE PUSH15 0xADB9434900F8848499F5CF3F2E5ED2 0xC4 0xF6 JUMPI DUP13 PUSH5 0x736F6C6343 STOP ADDMOD 0x1E STOP CALLER "
				},
				"gasEstimates": {
					"creation": {
						"codeDepositCost": "89600",
						"executionCost": "133",
						"totalCost": "89733"
					},
					"external": {
						"p12(uint256,uint256)": "infinite"
					}
				},
				"methodIdentifiers": {
					"p12(uint256,uint256)": "9a35aa90"
				}
			},
			"storageLayout": {
				"storage": [],
				"types": null
			},
			"userdoc": {
				"kind": "user",
				"methods": {},
				"version": 1
			}
		}
	}
}