{
	"Expensive operations/Pattern 11_1/unoptimized code 11_1.sol": {
		"C": {
			"abi": [
				{
					"inputs": [],
					"name": "p11",
					"outputs": [],
					"stateMutability": "nonpayable",
					"type": "function"
				}
			],
			"devdoc": {
				"kind": "dev",
				"methods": {},
				"version": 1
			},
			"evm": {
				"assembly": "    /* \"Expensive operations/Pattern 11_1/unoptimized code 11_1.sol\":47:210  contract C {... */\n  mstore(0x40, 0x80)\n    /* \"Expensive operations/Pattern 11_1/unoptimized code 11_1.sol\":74:75  0 */\n  0x00\n    /* \"Expensive operations/Pattern 11_1/unoptimized code 11_1.sol\":65:75  uint x = 0 */\n  0x00\n  sstore\n    /* \"Expensive operations/Pattern 11_1/unoptimized code 11_1.sol\":93:96  100 */\n  0x64\n    /* \"Expensive operations/Pattern 11_1/unoptimized code 11_1.sol\":82:96  uint num = 100 */\n  0x01\n  sstore\n    /* \"Expensive operations/Pattern 11_1/unoptimized code 11_1.sol\":47:210  contract C {... */\n  callvalue\n  dup1\n  iszero\n  tag_1\n  jumpi\n  revert(0x00, 0x00)\ntag_1:\n  pop\n  dataSize(sub_0)\n  dup1\n  dataOffset(sub_0)\n  0x00\n  codecopy\n  0x00\n  return\nstop\n\nsub_0: assembly {\n        /* \"Expensive operations/Pattern 11_1/unoptimized code 11_1.sol\":47:210  contract C {... */\n      mstore(0x40, 0x80)\n      callvalue\n      dup1\n      iszero\n      tag_1\n      jumpi\n      revert(0x00, 0x00)\n    tag_1:\n      pop\n      jumpi(tag_2, lt(calldatasize, 0x04))\n      shr(0xe0, calldataload(0x00))\n      dup1\n      0x141cdd65\n      eq\n      tag_3\n      jumpi\n    tag_2:\n      revert(0x00, 0x00)\n        /* \"Expensive operations/Pattern 11_1/unoptimized code 11_1.sol\":103:207  function p11() public{... */\n    tag_3:\n      tag_4\n      tag_5\n      jump\t// in\n    tag_4:\n      stop\n    tag_5:\n        /* \"Expensive operations/Pattern 11_1/unoptimized code 11_1.sol\":139:145  uint i */\n      0x00\n        /* \"Expensive operations/Pattern 11_1/unoptimized code 11_1.sol\":148:149  0 */\n      0x00\n        /* \"Expensive operations/Pattern 11_1/unoptimized code 11_1.sol\":139:149  uint i = 0 */\n      swap1\n      pop\n        /* \"Expensive operations/Pattern 11_1/unoptimized code 11_1.sol\":135:200  for(uint i = 0 ; i < num ; i++) {... */\n    tag_7:\n        /* \"Expensive operations/Pattern 11_1/unoptimized code 11_1.sol\":156:159  num */\n      sload(0x01)\n        /* \"Expensive operations/Pattern 11_1/unoptimized code 11_1.sol\":152:153  i */\n      dup2\n        /* \"Expensive operations/Pattern 11_1/unoptimized code 11_1.sol\":152:159  i < num */\n      lt\n        /* \"Expensive operations/Pattern 11_1/unoptimized code 11_1.sol\":135:200  for(uint i = 0 ; i < num ; i++) {... */\n      iszero\n      tag_8\n      jumpi\n        /* \"Expensive operations/Pattern 11_1/unoptimized code 11_1.sol\":187:188  1 */\n      0x01\n        /* \"Expensive operations/Pattern 11_1/unoptimized code 11_1.sol\":182:183  x */\n      0x00\n      0x00\n        /* \"Expensive operations/Pattern 11_1/unoptimized code 11_1.sol\":182:188  x += 1 */\n      dup3\n      dup3\n      sload\n      tag_10\n      swap2\n      swap1\n      tag_11\n      jump\t// in\n    tag_10:\n      swap3\n      pop\n      pop\n      dup2\n      swap1\n      sstore\n      pop\n        /* \"Expensive operations/Pattern 11_1/unoptimized code 11_1.sol\":162:165  i++ */\n      dup1\n      dup1\n      0x01\n      add\n      swap2\n      pop\n      pop\n        /* \"Expensive operations/Pattern 11_1/unoptimized code 11_1.sol\":135:200  for(uint i = 0 ; i < num ; i++) {... */\n      jump(tag_7)\n    tag_8:\n      pop\n        /* \"Expensive operations/Pattern 11_1/unoptimized code 11_1.sol\":103:207  function p11() public{... */\n      jump\t// out\n        /* \"#utility.yul\":7:84   */\n    tag_12:\n        /* \"#utility.yul\":44:51   */\n      0x00\n        /* \"#utility.yul\":73:78   */\n      dup2\n        /* \"#utility.yul\":62:78   */\n      swap1\n      pop\n        /* \"#utility.yul\":7:84   */\n      swap2\n      swap1\n      pop\n      jump\t// out\n        /* \"#utility.yul\":90:270   */\n    tag_13:\n        /* \"#utility.yul\":138:215   */\n      0x4e487b7100000000000000000000000000000000000000000000000000000000\n        /* \"#utility.yul\":135:136   */\n      0x00\n        /* \"#utility.yul\":128:216   */\n      mstore\n        /* \"#utility.yul\":235:239   */\n      0x11\n        /* \"#utility.yul\":232:233   */\n      0x04\n        /* \"#utility.yul\":225:240   */\n      mstore\n        /* \"#utility.yul\":259:263   */\n      0x24\n        /* \"#utility.yul\":256:257   */\n      0x00\n        /* \"#utility.yul\":249:264   */\n      revert\n        /* \"#utility.yul\":276:467   */\n    tag_11:\n        /* \"#utility.yul\":316:319   */\n      0x00\n        /* \"#utility.yul\":335:355   */\n      tag_18\n        /* \"#utility.yul\":353:354   */\n      dup3\n        /* \"#utility.yul\":335:355   */\n      tag_12\n      jump\t// in\n    tag_18:\n        /* \"#utility.yul\":330:355   */\n      swap2\n      pop\n        /* \"#utility.yul\":369:389   */\n      tag_19\n        /* \"#utility.yul\":387:388   */\n      dup4\n        /* \"#utility.yul\":369:389   */\n      tag_12\n      jump\t// in\n    tag_19:\n        /* \"#utility.yul\":364:389   */\n      swap3\n      pop\n        /* \"#utility.yul\":412:413   */\n      dup3\n        /* \"#utility.yul\":409:410   */\n      dup3\n        /* \"#utility.yul\":405:414   */\n      add\n        /* \"#utility.yul\":398:414   */\n      swap1\n      pop\n        /* \"#utility.yul\":433:436   */\n      dup1\n        /* \"#utility.yul\":430:431   */\n      dup3\n        /* \"#utility.yul\":427:437   */\n      gt\n        /* \"#utility.yul\":424:460   */\n      iszero\n      tag_20\n      jumpi\n        /* \"#utility.yul\":440:458   */\n      tag_21\n      tag_13\n      jump\t// in\n    tag_21:\n        /* \"#utility.yul\":424:460   */\n    tag_20:\n        /* \"#utility.yul\":276:467   */\n      swap3\n      swap2\n      pop\n      pop\n      jump\t// out\n\n    auxdata: 0xa2646970667358221220233665f2308d08af002a541ee2356a7dd17af0b70642cd0d19a6ee6def2df1d564736f6c634300081e0033\n}\n",
				"bytecode": {
					"linkReferences": {},
					"object": "60806040525f5f5560646001553480156016575f5ffd5b5060fd806100235f395ff3fe6080604052348015600e575f5ffd5b50600436106026575f3560e01c8063141cdd6514602a575b5f5ffd5b60306032565b005b5f5f90505b60015481101560625760015f5f828254604f9190609b565b9250508190555080806001019150506037565b50565b5f819050919050565b7f4e487b71000000000000000000000000000000000000000000000000000000005f52601160045260245ffd5b5f60a3826065565b915060ac836065565b925082820190508082111560c15760c0606e565b5b9291505056fea2646970667358221220233665f2308d08af002a541ee2356a7dd17af0b70642cd0d19a6ee6def2df1d564736f6c634300081e0033",
					"opcodes": "PUSH1 0x80 PUSH1 0x40 MSTORE PUSH0 PUSH0 SSTORE PUSH1 0x64 PUSH1 0x1 SSTORE CALLVALUE DUP1 ISZERO PUSH1 0x16 JUMPI PUSH0 PUSH0 REVERT JUMPDEST POP PUSH1 0xFD DUP1 PUSH2 0x23 PUSH0 CODECOPY PUSH0 RETURN INVALID PUSH1 0x80 PUSH1 0x40 MSTORE CALLVALUE DUP1 ISZERO PUSH1 0xE JUMPI PUSH0 PUSH0 REVERT JUMPDEST POP PUSH1 0x4 CALLDATASIZE LT PUSH1 0x26 JUMPI PUSH0 CALLDATALOAD PUSH1 0xE0 SHR DUP1 PUSH4 0x141CDD65 EQ PUSH1 0x2A JUMPI JUMPDEST PUSH0 PUSH0 REVERT JUMPDEST PUSH1 0x30 PUSH1 0x32 JUMP JUMPDEST STOP JUMPDEST PUSH0 PUSH0 SWAP1 POP JUMPDEST PUSH1 0x1 SLOAD DUP2 LT ISZERO PUSH1 0x62 JUMPI PUSH1 0x1 PUSH0 PUSH0 DUP3 DUP3 SLOAD PUSH1 0x4F SWAP2 SWAP1 PUSH1 0x9B JUMP JUMPDEST SWAP3 POP POP DUP2 SWAP1 SSTORE POP DUP1 DUP1 PUSH1 0x1 ADD SWAP2 POP POP PUSH1 0x37 JUMP JUMPDEST POP JUMP JUMPDEST PUSH0 DUP2 SWAP1 POP SWAP2 SWAP1 POP JUMP JUMPDEST PUSH32 0x4E487B7100000000000000000000000000000000000000000000000000000000 PUSH0 MSTORE PUSH1 0x11 PUSH1 0x4 MSTORE PUSH1 0x24 PUSH0 REVERT JUMPDEST PUSH0 PUSH1 0xA3 DUP3 PUSH1 0x65 JUMP JUMPDEST SWAP2 POP PUSH1 0xAC DUP4 PUSH1 0x65 JUMP JUMPDEST SWAP3 POP DUP3 DUP3 ADD SWAP1 POP DUP1 DUP3 GT ISZERO PUSH1 0xC1 JUMPI PUSH1 0xC0 PUSH1 0x6E JUMP JUMPDEST JUMPDEST SWAP3 SWAP2 POP POP JUMP INVALID LOG2 PUSH5 0x6970667358 0x22 SLT KECCAK256 0x23 CALLDATASIZE PUSH6 0xF2308D08AF00 0x2A SLOAD 0x1E 0xE2 CALLDATALOAD PUSH11 0x7DD17AF0B70642CD0D19A6 RETURNCONTRACT 0x6D 0xEF 0x2D CALL 0xD5 PUSH5 0x736F6C6343 STOP ADDMOD 0x1E STOP CALLER "
				},
				"gasEstimates": {
					"creation": {
						"codeDepositCost": "50600",
						"executionCost": "27207",
						"totalCost": "77807"
					},
					"external": {
						"p11()": "infinite"
					}
				},
				"methodIdentifiers": {
					"p11()": "141cdd65"
				}
			},
			"storageLayout": {
				"storage": [
					{
						"astId": 4,
						"contract": "Expensive operations/Pattern 11_1/unoptimized code 11_1.sol:C",
						"label": "x",
						"offset": 0,
						"slot": "0",
						"type": "t_uint256"
					},
					{
						"astId": 7,
						"contract": "Expensive operations/Pattern 11_1/unoptimized code 11_1.sol:C",
						"label": "num",
						"offset": 0,
						"slot": "1",
						"type": "t_uint256"
					}
				],
				"types": {
					"t_uint256": {
						"encoding": "inplace",
						"label": "uint256",
						"numberOfBytes": "32"
					}
				}
			},
			"userdoc": {
				"kind": "user",
				"methods": {},
				"version": 1
			}
		}
	}
}