{
	"Expensive operations/Pattern 11_4/optimized code 11_4.sol": {
		"C": {
			"abi": [
				{
					"inputs": [
						{
							"internalType": "address",
							"name": "account",
							"type": "address"
						}
					],
					"name": "p12",
					"outputs": [],
					"stateMutability": "nonpayable",
					"type": "function"
				}
			],
			"devdoc": {
				"kind": "dev",
				"methods": {},
				"version": 1
			},
			"evm": {
				"assembly": "    /* \"Expensive operations/Pattern 11_4/optimized code 11_4.sol\":45:260  contract C {... */\n  mstore(0x40, 0x80)\n    /* \"Expensive operations/Pattern 11_4/optimized code 11_4.sol\":85:88  100 */\n  0x64\n    /* \"Expensive operations/Pattern 11_4/optimized code 11_4.sol\":74:89  new uint[](100) */\n  0xffffffffffffffff\n  dup2\n  gt\n  iszero\n  tag_1\n  jumpi\n  tag_2\n  tag_3\n  jump\t// in\ntag_2:\ntag_1:\n  mload(0x40)\n  swap1\n  dup1\n  dup3\n  mstore\n  dup1\n  0x20\n  mul\n  0x20\n  add\n  dup3\n  add\n  0x40\n  mstore\n  dup1\n  iszero\n  tag_4\n  jumpi\n  dup2\n  0x20\n  add\n  0x20\n  dup3\n  mul\n  dup1\n  calldatasize\n  dup4\n  calldatacopy\n  dup1\n  dup3\n  add\n  swap2\n  pop\n  pop\n  swap1\n  pop\ntag_4:\n  pop\n    /* \"Expensive operations/Pattern 11_4/optimized code 11_4.sol\":63:89  uint[] x = new uint[](100) */\n  0x00\n  swap1\n  dup1\n  mload\n  swap1\n  0x20\n  add\n  swap1\n  tag_5\n  swap3\n  swap2\n  swap1\n  tag_6\n  jump\t// in\ntag_5:\n  pop\n    /* \"Expensive operations/Pattern 11_4/optimized code 11_4.sol\":45:260  contract C {... */\n  callvalue\n  dup1\n  iszero\n  tag_7\n  jumpi\n  revert(0x00, 0x00)\ntag_7:\n  pop\n  jump(tag_8)\ntag_6:\n  dup3\n  dup1\n  sload\n  dup3\n  dup3\n  sstore\n  swap1\n  0x00\n  mstore\n  keccak256(0x00, 0x20)\n  swap1\n  dup2\n  add\n  swap3\n  dup3\n  iszero\n  tag_9\n  jumpi\n  swap2\n  0x20\n  mul\n  dup3\n  add\ntag_10:\n  dup3\n  dup2\n  gt\n  iszero\n  tag_11\n  jumpi\n  dup3\n  mload\n  dup3\n  sstore\n  swap2\n  0x20\n  add\n  swap2\n  swap1\n  0x01\n  add\n  swap1\n  jump(tag_10)\ntag_11:\ntag_9:\n  pop\n  swap1\n  pop\n  tag_12\n  swap2\n  swap1\n  tag_13\n  jump\t// in\ntag_12:\n  pop\n  swap1\n  jump\t// out\ntag_13:\ntag_14:\n  dup1\n  dup3\n  gt\n  iszero\n  tag_15\n  jumpi\n  0x00\n  dup2\n  0x00\n  swap1\n  sstore\n  pop\n  0x01\n  add\n  jump(tag_14)\ntag_15:\n  pop\n  swap1\n  jump\t// out\n    /* \"#utility.yul\":7:187   */\ntag_3:\n    /* \"#utility.yul\":55:132   */\n  0x4e487b7100000000000000000000000000000000000000000000000000000000\n    /* \"#utility.yul\":52:53   */\n  0x00\n    /* \"#utility.yul\":45:133   */\n  mstore\n    /* \"#utility.yul\":152:156   */\n  0x41\n    /* \"#utility.yul\":149:150   */\n  0x04\n    /* \"#utility.yul\":142:157   */\n  mstore\n    /* \"#utility.yul\":176:180   */\n  0x24\n    /* \"#utility.yul\":173:174   */\n  0x00\n    /* \"#utility.yul\":166:181   */\n  revert\n    /* \"Expensive operations/Pattern 11_4/optimized code 11_4.sol\":45:260  contract C {... */\ntag_8:\n  dataSize(sub_0)\n  dup1\n  dataOffset(sub_0)\n  0x00\n  codecopy\n  0x00\n  return\nstop\n\nsub_0: assembly {\n        /* \"Expensive operations/Pattern 11_4/optimized code 11_4.sol\":45:260  contract C {... */\n      mstore(0x40, 0x80)\n      callvalue\n      dup1\n      iszero\n      tag_1\n      jumpi\n      revert(0x00, 0x00)\n    tag_1:\n      pop\n      jumpi(tag_2, lt(calldatasize, 0x04))\n      shr(0xe0, calldataload(0x00))\n      dup1\n      0x5099b311\n      eq\n      tag_3\n      jumpi\n    tag_2:\n      revert(0x00, 0x00)\n        /* \"Expensive operations/Pattern 11_4/optimized code 11_4.sol\":96:257  function p12(address account) public {... */\n    tag_3:\n      tag_4\n      0x04\n      dup1\n      calldatasize\n      sub\n      dup2\n      add\n      swap1\n      tag_5\n      swap2\n      swap1\n      tag_6\n      jump\t// in\n    tag_5:\n      tag_7\n      jump\t// in\n    tag_4:\n      stop\n    tag_7:\n        /* \"Expensive operations/Pattern 11_4/optimized code 11_4.sol\":144:150  uint y */\n      0x00\n        /* \"Expensive operations/Pattern 11_4/optimized code 11_4.sol\":153:154  x */\n      0x00\n        /* \"Expensive operations/Pattern 11_4/optimized code 11_4.sol\":153:161  x.length */\n      dup1\n      sload\n      swap1\n      pop\n        /* \"Expensive operations/Pattern 11_4/optimized code 11_4.sol\":144:161  uint y = x.length */\n      swap1\n      pop\n        /* \"Expensive operations/Pattern 11_4/optimized code 11_4.sol\":177:183  uint i */\n      0x00\n        /* \"Expensive operations/Pattern 11_4/optimized code 11_4.sol\":186:187  0 */\n      0x00\n        /* \"Expensive operations/Pattern 11_4/optimized code 11_4.sol\":177:187  uint i = 0 */\n      swap1\n      pop\n        /* \"Expensive operations/Pattern 11_4/optimized code 11_4.sol\":172:250  for (uint i = 0; i < 100; i++) {... */\n    tag_9:\n        /* \"Expensive operations/Pattern 11_4/optimized code 11_4.sol\":193:196  100 */\n      0x64\n        /* \"Expensive operations/Pattern 11_4/optimized code 11_4.sol\":189:190  i */\n      dup2\n        /* \"Expensive operations/Pattern 11_4/optimized code 11_4.sol\":189:196  i < 100 */\n      lt\n        /* \"Expensive operations/Pattern 11_4/optimized code 11_4.sol\":172:250  for (uint i = 0; i < 100; i++) {... */\n      iszero\n      tag_10\n      jumpi\n        /* \"Expensive operations/Pattern 11_4/optimized code 11_4.sol\":229:230  x */\n      0x00\n        /* \"Expensive operations/Pattern 11_4/optimized code 11_4.sol\":235:236  1 */\n      0x01\n        /* \"Expensive operations/Pattern 11_4/optimized code 11_4.sol\":231:232  y */\n      dup4\n        /* \"Expensive operations/Pattern 11_4/optimized code 11_4.sol\":231:236  y - 1 */\n      tag_12\n      swap2\n      swap1\n      tag_13\n      jump\t// in\n    tag_12:\n        /* \"Expensive operations/Pattern 11_4/optimized code 11_4.sol\":229:237  x[y - 1] */\n      dup2\n      sload\n      dup2\n      lt\n      tag_14\n      jumpi\n      tag_15\n      tag_16\n      jump\t// in\n    tag_15:\n    tag_14:\n      swap1\n      0x00\n      mstore\n      keccak256(0x00, 0x20)\n      add\n      sload\n        /* \"Expensive operations/Pattern 11_4/optimized code 11_4.sol\":222:223  x */\n      0x00\n        /* \"Expensive operations/Pattern 11_4/optimized code 11_4.sol\":224:225  i */\n      dup3\n        /* \"Expensive operations/Pattern 11_4/optimized code 11_4.sol\":222:226  x[i] */\n      dup2\n      sload\n      dup2\n      lt\n      tag_18\n      jumpi\n      tag_19\n      tag_16\n      jump\t// in\n    tag_19:\n    tag_18:\n      swap1\n      0x00\n      mstore\n      keccak256(0x00, 0x20)\n      add\n        /* \"Expensive operations/Pattern 11_4/optimized code 11_4.sol\":222:237  x[i] = x[y - 1] */\n      dup2\n      swap1\n      sstore\n      pop\n        /* \"Expensive operations/Pattern 11_4/optimized code 11_4.sol\":198:201  i++ */\n      dup1\n      dup1\n      0x01\n      add\n      swap2\n      pop\n      pop\n        /* \"Expensive operations/Pattern 11_4/optimized code 11_4.sol\":172:250  for (uint i = 0; i < 100; i++) {... */\n      jump(tag_9)\n    tag_10:\n      pop\n        /* \"Expensive operations/Pattern 11_4/optimized code 11_4.sol\":133:257  {... */\n      pop\n        /* \"Expensive operations/Pattern 11_4/optimized code 11_4.sol\":96:257  function p12(address account) public {... */\n      pop\n      jump\t// out\n        /* \"#utility.yul\":88:205   */\n    tag_22:\n        /* \"#utility.yul\":197:198   */\n      0x00\n        /* \"#utility.yul\":194:195   */\n      0x00\n        /* \"#utility.yul\":187:199   */\n      revert\n        /* \"#utility.yul\":334:460   */\n    tag_24:\n        /* \"#utility.yul\":371:378   */\n      0x00\n        /* \"#utility.yul\":411:453   */\n      0xffffffffffffffffffffffffffffffffffffffff\n        /* \"#utility.yul\":404:409   */\n      dup3\n        /* \"#utility.yul\":400:454   */\n      and\n        /* \"#utility.yul\":389:454   */\n      swap1\n      pop\n        /* \"#utility.yul\":334:460   */\n      swap2\n      swap1\n      pop\n      jump\t// out\n        /* \"#utility.yul\":466:562   */\n    tag_25:\n        /* \"#utility.yul\":503:510   */\n      0x00\n        /* \"#utility.yul\":532:556   */\n      tag_36\n        /* \"#utility.yul\":550:555   */\n      dup3\n        /* \"#utility.yul\":532:556   */\n      tag_24\n      jump\t// in\n    tag_36:\n        /* \"#utility.yul\":521:556   */\n      swap1\n      pop\n        /* \"#utility.yul\":466:562   */\n      swap2\n      swap1\n      pop\n      jump\t// out\n        /* \"#utility.yul\":568:690   */\n    tag_26:\n        /* \"#utility.yul\":641:665   */\n      tag_38\n        /* \"#utility.yul\":659:664   */\n      dup2\n        /* \"#utility.yul\":641:665   */\n      tag_25\n      jump\t// in\n    tag_38:\n        /* \"#utility.yul\":634:639   */\n      dup2\n        /* \"#utility.yul\":631:666   */\n      eq\n        /* \"#utility.yul\":621:684   */\n      tag_39\n      jumpi\n        /* \"#utility.yul\":680:681   */\n      0x00\n        /* \"#utility.yul\":677:678   */\n      0x00\n        /* \"#utility.yul\":670:682   */\n      revert\n        /* \"#utility.yul\":621:684   */\n    tag_39:\n        /* \"#utility.yul\":568:690   */\n      pop\n      jump\t// out\n        /* \"#utility.yul\":696:835   */\n    tag_27:\n        /* \"#utility.yul\":742:747   */\n      0x00\n        /* \"#utility.yul\":780:786   */\n      dup2\n        /* \"#utility.yul\":767:787   */\n      calldataload\n        /* \"#utility.yul\":758:787   */\n      swap1\n      pop\n        /* \"#utility.yul\":796:829   */\n      tag_41\n        /* \"#utility.yul\":823:828   */\n      dup2\n        /* \"#utility.yul\":796:829   */\n      tag_26\n      jump\t// in\n    tag_41:\n        /* \"#utility.yul\":696:835   */\n      swap3\n      swap2\n      pop\n      pop\n      jump\t// out\n        /* \"#utility.yul\":841:1170   */\n    tag_6:\n        /* \"#utility.yul\":900:906   */\n      0x00\n        /* \"#utility.yul\":949:951   */\n      0x20\n        /* \"#utility.yul\":937:946   */\n      dup3\n        /* \"#utility.yul\":928:935   */\n      dup5\n        /* \"#utility.yul\":924:947   */\n      sub\n        /* \"#utility.yul\":920:952   */\n      slt\n        /* \"#utility.yul\":917:1036   */\n      iszero\n      tag_43\n      jumpi\n        /* \"#utility.yul\":955:1034   */\n      tag_44\n      tag_22\n      jump\t// in\n    tag_44:\n        /* \"#utility.yul\":917:1036   */\n    tag_43:\n        /* \"#utility.yul\":1075:1076   */\n      0x00\n        /* \"#utility.yul\":1100:1153   */\n      tag_45\n        /* \"#utility.yul\":1145:1152   */\n      dup5\n        /* \"#utility.yul\":1136:1142   */\n      dup3\n        /* \"#utility.yul\":1125:1134   */\n      dup6\n        /* \"#utility.yul\":1121:1143   */\n      add\n        /* \"#utility.yul\":1100:1153   */\n      tag_27\n      jump\t// in\n    tag_45:\n        /* \"#utility.yul\":1090:1153   */\n      swap2\n      pop\n        /* \"#utility.yul\":1046:1163   */\n      pop\n        /* \"#utility.yul\":841:1170   */\n      swap3\n      swap2\n      pop\n      pop\n      jump\t// out\n        /* \"#utility.yul\":1176:1253   */\n    tag_28:\n        /* \"#utility.yul\":1213:1220   */\n      0x00\n        /* \"#utility.yul\":1242:1247   */\n      dup2\n        /* \"#utility.yul\":1231:1247   */\n      swap1\n      pop\n        /* \"#utility.yul\":1176:1253   */\n      swap2\n      swap1\n      pop\n      jump\t// out\n        /* \"#utility.yul\":1259:1439   */\n    tag_29:\n        /* \"#utility.yul\":1307:1384   */\n      0x4e487b7100000000000000000000000000000000000000000000000000000000\n        /* \"#utility.yul\":1304:1305   */\n      0x00\n        /* \"#utility.yul\":1297:1385   */\n      mstore\n        /* \"#utility.yul\":1404:1408   */\n      0x11\n        /* \"#utility.yul\":1401:1402   */\n      0x04\n        /* \"#utility.yul\":1394:1409   */\n      mstore\n        /* \"#utility.yul\":1428:1432   */\n      0x24\n        /* \"#utility.yul\":1425:1426   */\n      0x00\n        /* \"#utility.yul\":1418:1433   */\n      revert\n        /* \"#utility.yul\":1445:1639   */\n    tag_13:\n        /* \"#utility.yul\":1485:1489   */\n      0x00\n        /* \"#utility.yul\":1505:1525   */\n      tag_49\n        /* \"#utility.yul\":1523:1524   */\n      dup3\n        /* \"#utility.yul\":1505:1525   */\n      tag_28\n      jump\t// in\n    tag_49:\n        /* \"#utility.yul\":1500:1525   */\n      swap2\n      pop\n        /* \"#utility.yul\":1539:1559   */\n      tag_50\n        /* \"#utility.yul\":1557:1558   */\n      dup4\n        /* \"#utility.yul\":1539:1559   */\n      tag_28\n      jump\t// in\n    tag_50:\n        /* \"#utility.yul\":1534:1559   */\n      swap3\n      pop\n        /* \"#utility.yul\":1583:1584   */\n      dup3\n        /* \"#utility.yul\":1580:1581   */\n      dup3\n        /* \"#utility.yul\":1576:1585   */\n      sub\n        /* \"#utility.yul\":1568:1585   */\n      swap1\n      pop\n        /* \"#utility.yul\":1607:1608   */\n      dup2\n        /* \"#utility.yul\":1601:1605   */\n      dup2\n        /* \"#utility.yul\":1598:1609   */\n      gt\n        /* \"#utility.yul\":1595:1632   */\n      iszero\n      tag_51\n      jumpi\n        /* \"#utility.yul\":1612:1630   */\n      tag_52\n      tag_29\n      jump\t// in\n    tag_52:\n        /* \"#utility.yul\":1595:1632   */\n    tag_51:\n        /* \"#utility.yul\":1445:1639   */\n      swap3\n      swap2\n      pop\n      pop\n      jump\t// out\n        /* \"#utility.yul\":1645:1825   */\n    tag_16:\n        /* \"#utility.yul\":1693:1770   */\n      0x4e487b7100000000000000000000000000000000000000000000000000000000\n        /* \"#utility.yul\":1690:1691   */\n      0x00\n        /* \"#utility.yul\":1683:1771   */\n      mstore\n        /* \"#utility.yul\":1790:1794   */\n      0x32\n        /* \"#utility.yul\":1787:1788   */\n      0x04\n        /* \"#utility.yul\":1780:1795   */\n      mstore\n        /* \"#utility.yul\":1814:1818   */\n      0x24\n        /* \"#utility.yul\":1811:1812   */\n      0x00\n        /* \"#utility.yul\":1804:1819   */\n      revert\n\n    auxdata: 0xa2646970667358221220925ab46f0bb41c08f7baef0968243d297935378426521cf77c419b108ba8c42264736f6c634300081e0033\n}\n",
				"bytecode": {
					"linkReferences": {},
					"object": "6080604052606467ffffffffffffffff81111561001f5761001e6100da565b5b60405190808252806020026020018201604052801561004d5781602001602082028036833780820191505090505b505f9080519060200190610062929190610074565b5034801561006e575f5ffd5b50610107565b828054828255905f5260205f209081019282156100ae579160200282015b828111156100ad578251825591602001919060010190610092565b5b5090506100bb91906100bf565b5090565b5b808211156100d6575f815f9055506001016100c0565b5090565b7f4e487b71000000000000000000000000000000000000000000000000000000005f52604160045260245ffd5b61020d806101145f395ff3fe608060405234801561000f575f5ffd5b5060043610610029575f3560e01c80635099b3111461002d575b5f5ffd5b61004760048036038101906100429190610116565b610049565b005b5f5f8054905090505f5f90505b60648110156100b3575f60018361006d9190610177565b8154811061007e5761007d6101aa565b5b905f5260205f2001545f828154811061009a576100996101aa565b5b905f5260205f2001819055508080600101915050610056565b505050565b5f5ffd5b5f73ffffffffffffffffffffffffffffffffffffffff82169050919050565b5f6100e5826100bc565b9050919050565b6100f5816100db565b81146100ff575f5ffd5b50565b5f81359050610110816100ec565b92915050565b5f6020828403121561012b5761012a6100b8565b5b5f61013884828501610102565b91505092915050565b5f819050919050565b7f4e487b71000000000000000000000000000000000000000000000000000000005f52601160045260245ffd5b5f61018182610141565b915061018c83610141565b92508282039050818111156101a4576101a361014a565b5b92915050565b7f4e487b71000000000000000000000000000000000000000000000000000000005f52603260045260245ffdfea2646970667358221220925ab46f0bb41c08f7baef0968243d297935378426521cf77c419b108ba8c42264736f6c634300081e0033",
					"opcodes": "PUSH1 0x80 PUSH1 0x40 MSTORE PUSH1 0x64 PUSH8 0xFFFFFFFFFFFFFFFF DUP2 GT ISZERO PUSH2 0x1F JUMPI PUSH2 0x1E PUSH2 0xDA JUMP JUMPDEST JUMPDEST PUSH1 0x40 MLOAD SWAP1 DUP1 DUP3 MSTORE DUP1 PUSH1 0x20 MUL PUSH1 0x20 ADD DUP3 ADD PUSH1 0x40 MSTORE DUP1 ISZERO PUSH2 0x4D JUMPI DUP2 PUSH1 0x20 ADD PUSH1 0x20 DUP3 MUL DUP1 CALLDATASIZE DUP4 CALLDATACOPY DUP1 DUP3 ADD SWAP2 POP POP SWAP1 POP JUMPDEST POP PUSH0 SWAP1 DUP1 MLOAD SWAP1 PUSH1 0x20 ADD SWAP1 PUSH2 0x62 SWAP3 SWAP2 SWAP1 PUSH2 0x74 JUMP JUMPDEST POP CALLVALUE DUP1 ISZERO PUSH2 0x6E JUMPI PUSH0 PUSH0 REVERT JUMPDEST POP PUSH2 0x107 JUMP JUMPDEST DUP3 DUP1 SLOAD DUP3 DUP3 SSTORE SWAP1 PUSH0 MSTORE PUSH1 0x20 PUSH0 KECCAK256 SWAP1 DUP2 ADD SWAP3 DUP3 ISZERO PUSH2 0xAE JUMPI SWAP2 PUSH1 0x20 MUL DUP3 ADD JUMPDEST DUP3 DUP2 GT ISZERO PUSH2 0xAD JUMPI DUP3 MLOAD DUP3 SSTORE SWAP2 PUSH1 0x20 ADD SWAP2 SWAP1 PUSH1 0x1 ADD SWAP1 PUSH2 0x92 JUMP JUMPDEST JUMPDEST POP SWAP1 POP PUSH2 0xBB SWAP2 SWAP1 PUSH2 0xBF JUMP JUMPDEST POP SWAP1 JUMP JUMPDEST JUMPDEST DUP1 DUP3 GT ISZERO PUSH2 0xD6 JUMPI PUSH0 DUP2 PUSH0 SWAP1 SSTORE POP PUSH1 0x1 ADD PUSH2 0xC0 JUMP JUMPDEST POP SWAP1 JUMP JUMPDEST PUSH32 0x4E487B7100000000000000000000000000000000000000000000000000000000 PUSH0 MSTORE PUSH1 0x41 PUSH1 0x4 MSTORE PUSH1 0x24 PUSH0 REVERT JUMPDEST PUSH2 0x20D DUP1 PUSH2 0x114 PUSH0 CODECOPY PUSH0 RETURN INVALID PUSH1 0x80 PUSH1 0x40 MSTORE CALLVALUE DUP1 ISZERO PUSH2 0xF JUMPI PUSH0 PUSH0 REVERT JUMPDEST POP PUSH1 0x4 CALLDATASIZE LT PUSH2 0x29 JUMPI PUSH0 CALLDATALOAD PUSH1 0xE0 SHR DUP1 PUSH4 0x5099B311 EQ PUSH2 0x2D JUMPI JUMPDEST PUSH0 PUSH0 REVERT JUMPDEST PUSH2 0x47 PUSH1 0x4 DUP1 CALLDATASIZE SUB DUP2 ADD SWAP1 PUSH2 0x42 SWAP2 SWAP1 PUSH2 0x116 JUMP JUMPDEST PUSH2 0x49 JUMP JUMPDEST STOP JUMPDEST PUSH0 PUSH0 DUP1 SLOAD SWAP1 POP SWAP1 POP PUSH0 PUSH0 SWAP1 POP JUMPDEST PUSH1 0x64 DUP2 LT ISZERO PUSH2 0xB3 JUMPI PUSH0 PUSH1 0x1 DUP4 PUSH2 0x6D SWAP2 SWAP1 PUSH2 0x177 JUMP JUMPDEST DUP2 SLOAD DUP2 LT PUSH2 0x7E JUMPI PUSH2 0x7D PUSH2 0x1AA JUMP JUMPDEST JUMPDEST SWAP1 PUSH0 MSTORE PUSH1 0x20 PUSH0 KECCAK256 ADD SLOAD PUSH0 DUP3 DUP2 SLOAD DUP2 LT PUSH2 0x9A JUMPI PUSH2 0x99 PUSH2 0x1AA JUMP JUMPDEST JUMPDEST SWAP1 PUSH0 MSTORE PUSH1 0x20 PUSH0 KECCAK256 ADD DUP2 SWAP1 SSTORE POP DUP1 DUP1 PUSH1 0x1 ADD SWAP2 POP POP PUSH2 0x56 JUMP JUMPDEST POP POP POP JUMP JUMPDEST PUSH0 PUSH0 REVERT JUMPDEST PUSH0 PUSH20 0xFFFFFFFFFFFFFFFFFFFFFFFFFFFFFFFFFFFFFFFF DUP3 AND SWAP1 POP SWAP2 SWAP1 POP JUMP JUMPDEST PUSH0 PUSH2 0xE5 DUP3 PUSH2 0xBC JUMP JUMPDEST SWAP1 POP SWAP2 SWAP1 POP JUMP JUMPDEST PUSH2 0xF5 DUP2 PUSH2 0xDB JUMP JUMPDEST DUP2 EQ PUSH2 0xFF JUMPI PUSH0 PUSH0 REVERT JUMPDEST POP JUMP JUMPDEST PUSH0 DUP2 CALLDATALOAD SWAP1 POP PUSH2 0x110 DUP2 PUSH2 0xEC JUMP JUMPDEST SWAP3 SWAP2 POP POP JUMP JUMPDEST PUSH0 PUSH1 0x20 DUP3 DUP5 SUB SLT ISZERO PUSH2 0x12B JUMPI PUSH2 0x12A PUSH2 0xB8 JUMP JUMPDEST JUMPDEST PUSH0 PUSH2 0x138 DUP5 DUP3 DUP6 ADD PUSH2 0x102 JUMP JUMPDEST SWAP2 POP POP SWAP3 SWAP2 POP POP JUMP JUMPDEST PUSH0 DUP2 SWAP1 POP SWAP2 SWAP1 POP JUMP JUMPDEST PUSH32 0x4E487B7100000000000000000000000000000000000000000000000000000000 PUSH0 MSTORE PUSH1 0x11 PUSH1 0x4 MSTORE PUSH1 0x24 PUSH0 REVERT JUMPDEST PUSH0 PUSH2 0x181 DUP3 PUSH2 0x141 JUMP JUMPDEST SWAP2 POP PUSH2 0x18C DUP4 PUSH2 0x141 JUMP JUMPDEST SWAP3 POP DUP3 DUP3 SUB SWAP1 POP DUP2 DUP2 GT ISZERO PUSH2 0x1A4 JUMPI PUSH2 0x1A3 PUSH2 0x14A JUMP JUMPDEST JUMPDEST SWAP3 SWAP2 POP POP JUMP JUMPDEST PUSH32 0x4E487B7100000000000000000000000000000000000000000000000000000000 PUSH0 MSTORE PUSH1 0x32 PUSH1 0x4 MSTORE PUSH1 0x24 PUSH0 REVERT INVALID LOG2 PUSH5 0x6970667358 0x22 SLT KECCAK256 SWAP3 GAS 0xB4 PUSH16 0xBB41C08F7BAEF0968243D2979353784 0x26 MSTORE SHR 0xF7 PUSH29 0x419B108BA8C42264736F6C634300081E00330000000000000000000000 "
				},
				"gasEstimates": {
					"creation": {
						"codeDepositCost": "105000",
						"executionCost": "infinite",
						"totalCost": "infinite"
					},
					"external": {
						"p12(address)": "infinite"
					}
				},
				"methodIdentifiers": {
					"p12(address)": "5099b311"
				}
			},
			"storageLayout": {
				"storage": [
					{
						"astId": 9,
						"contract": "Expensive operations/Pattern 11_4/optimized code 11_4.sol:C",
						"label": "x",
						"offset": 0,
						"slot": "0",
						"type": "t_array(t_uint256)dyn_storage"
					}
				],
				"types": {
					"t_array(t_uint256)dyn_storage": {
						"base": "t_uint256",
						"encoding": "dynamic_array",
						"label": "uint256[]",
						"numberOfBytes": "32"
					},
					"t_uint256": {
						"encoding": "inplace",
						"label": "uint256",
						"numberOfBytes": "32"
					}
				}
			},
			"userdoc": {
				"kind": "user",
				"methods": {},
				"version": 1
			}
		}
	}
}