{
	"Repeat calculation/pattern 10_2/unoptimized code 10_2.sol": {
		"C": {
			"abi": [
				{
					"inputs": [],
					"name": "p10",
					"outputs": [],
					"stateMutability": "nonpayable",
					"type": "function"
				}
			],
			"devdoc": {
				"kind": "dev",
				"methods": {},
				"version": 1
			},
			"evm": {
				"assembly": "    /* \"Repeat calculation/pattern 10_2/unoptimized code 10_2.sol\":47:233  contract C {... */\n  mstore(0x40, 0x80)\n    /* \"Repeat calculation/pattern 10_2/unoptimized code 10_2.sol\":74:75  1 */\n  0x01\n    /* \"Repeat calculation/pattern 10_2/unoptimized code 10_2.sol\":65:75  uint a = 1 */\n  0x00\n  sstore\n    /* \"Repeat calculation/pattern 10_2/unoptimized code 10_2.sol\":91:94  100 */\n  0x64\n    /* \"Repeat calculation/pattern 10_2/unoptimized code 10_2.sol\":82:94  uint b = 100 */\n  0x01\n  sstore\n    /* \"Repeat calculation/pattern 10_2/unoptimized code 10_2.sol\":47:233  contract C {... */\n  callvalue\n  dup1\n  iszero\n  tag_1\n  jumpi\n  revert(0x00, 0x00)\ntag_1:\n  pop\n  dataSize(sub_0)\n  dup1\n  dataOffset(sub_0)\n  0x00\n  codecopy\n  0x00\n  return\nstop\n\nsub_0: assembly {\n        /* \"Repeat calculation/pattern 10_2/unoptimized code 10_2.sol\":47:233  contract C {... */\n      mstore(0x40, 0x80)\n      callvalue\n      dup1\n      iszero\n      tag_1\n      jumpi\n      revert(0x00, 0x00)\n    tag_1:\n      pop\n      jumpi(tag_2, lt(calldatasize, 0x04))\n      shr(0xe0, calldataload(0x00))\n      dup1\n      0x0e9b56ae\n      eq\n      tag_3\n      jumpi\n    tag_2:\n      revert(0x00, 0x00)\n        /* \"Repeat calculation/pattern 10_2/unoptimized code 10_2.sol\":101:230  function p10() public  {... */\n    tag_3:\n      tag_4\n      tag_5\n      jump\t// in\n    tag_4:\n      stop\n    tag_5:\n        /* \"Repeat calculation/pattern 10_2/unoptimized code 10_2.sol\":135:143  uint sum */\n      0x00\n        /* \"Repeat calculation/pattern 10_2/unoptimized code 10_2.sol\":146:147  0 */\n      0x00\n        /* \"Repeat calculation/pattern 10_2/unoptimized code 10_2.sol\":135:147  uint sum = 0 */\n      swap1\n      pop\n        /* \"Repeat calculation/pattern 10_2/unoptimized code 10_2.sol\":162:168  uint i */\n      0x00\n        /* \"Repeat calculation/pattern 10_2/unoptimized code 10_2.sol\":171:172  0 */\n      0x00\n        /* \"Repeat calculation/pattern 10_2/unoptimized code 10_2.sol\":162:172  uint i = 0 */\n      swap1\n      pop\n        /* \"Repeat calculation/pattern 10_2/unoptimized code 10_2.sol\":158:223  for(uint i = 0; i <= a * b; i++) {... */\n    tag_7:\n        /* \"Repeat calculation/pattern 10_2/unoptimized code 10_2.sol\":183:184  b */\n      sload(0x01)\n        /* \"Repeat calculation/pattern 10_2/unoptimized code 10_2.sol\":179:180  a */\n      sload(0x00)\n        /* \"Repeat calculation/pattern 10_2/unoptimized code 10_2.sol\":179:184  a * b */\n      tag_10\n      swap2\n      swap1\n      tag_11\n      jump\t// in\n    tag_10:\n        /* \"Repeat calculation/pattern 10_2/unoptimized code 10_2.sol\":174:175  i */\n      dup2\n        /* \"Repeat calculation/pattern 10_2/unoptimized code 10_2.sol\":174:184  i <= a * b */\n      gt\n        /* \"Repeat calculation/pattern 10_2/unoptimized code 10_2.sol\":158:223  for(uint i = 0; i <= a * b; i++) {... */\n      tag_8\n      jumpi\n        /* \"Repeat calculation/pattern 10_2/unoptimized code 10_2.sol\":206:211  sum++ */\n      dup2\n      dup1\n      tag_12\n      swap1\n      tag_13\n      jump\t// in\n    tag_12:\n      swap3\n      pop\n      pop\n        /* \"Repeat calculation/pattern 10_2/unoptimized code 10_2.sol\":186:189  i++ */\n      dup1\n      dup1\n      tag_14\n      swap1\n      tag_13\n      jump\t// in\n    tag_14:\n      swap2\n      pop\n      pop\n        /* \"Repeat calculation/pattern 10_2/unoptimized code 10_2.sol\":158:223  for(uint i = 0; i <= a * b; i++) {... */\n      jump(tag_7)\n    tag_8:\n      pop\n        /* \"Repeat calculation/pattern 10_2/unoptimized code 10_2.sol\":124:230  {... */\n      pop\n        /* \"Repeat calculation/pattern 10_2/unoptimized code 10_2.sol\":101:230  function p10() public  {... */\n      jump\t// out\n        /* \"#utility.yul\":7:84   */\n    tag_15:\n        /* \"#utility.yul\":44:51   */\n      0x00\n        /* \"#utility.yul\":73:78   */\n      dup2\n        /* \"#utility.yul\":62:78   */\n      swap1\n      pop\n        /* \"#utility.yul\":7:84   */\n      swap2\n      swap1\n      pop\n      jump\t// out\n        /* \"#utility.yul\":90:270   */\n    tag_16:\n        /* \"#utility.yul\":138:215   */\n      0x4e487b7100000000000000000000000000000000000000000000000000000000\n        /* \"#utility.yul\":135:136   */\n      0x00\n        /* \"#utility.yul\":128:216   */\n      mstore\n        /* \"#utility.yul\":235:239   */\n      0x11\n        /* \"#utility.yul\":232:233   */\n      0x04\n        /* \"#utility.yul\":225:240   */\n      mstore\n        /* \"#utility.yul\":259:263   */\n      0x24\n        /* \"#utility.yul\":256:257   */\n      0x00\n        /* \"#utility.yul\":249:264   */\n      revert\n        /* \"#utility.yul\":276:686   */\n    tag_11:\n        /* \"#utility.yul\":316:323   */\n      0x00\n        /* \"#utility.yul\":339:359   */\n      tag_21\n        /* \"#utility.yul\":357:358   */\n      dup3\n        /* \"#utility.yul\":339:359   */\n      tag_15\n      jump\t// in\n    tag_21:\n        /* \"#utility.yul\":334:359   */\n      swap2\n      pop\n        /* \"#utility.yul\":373:393   */\n      tag_22\n        /* \"#utility.yul\":391:392   */\n      dup4\n        /* \"#utility.yul\":373:393   */\n      tag_15\n      jump\t// in\n    tag_22:\n        /* \"#utility.yul\":368:393   */\n      swap3\n      pop\n        /* \"#utility.yul\":428:429   */\n      dup3\n        /* \"#utility.yul\":425:426   */\n      dup3\n        /* \"#utility.yul\":421:430   */\n      mul\n        /* \"#utility.yul\":450:480   */\n      tag_23\n        /* \"#utility.yul\":468:479   */\n      dup2\n        /* \"#utility.yul\":450:480   */\n      tag_15\n      jump\t// in\n    tag_23:\n        /* \"#utility.yul\":439:480   */\n      swap2\n      pop\n        /* \"#utility.yul\":629:630   */\n      dup3\n        /* \"#utility.yul\":620:627   */\n      dup3\n        /* \"#utility.yul\":616:631   */\n      div\n        /* \"#utility.yul\":613:614   */\n      dup5\n        /* \"#utility.yul\":610:632   */\n      eq\n        /* \"#utility.yul\":590:591   */\n      dup4\n        /* \"#utility.yul\":583:592   */\n      iszero\n        /* \"#utility.yul\":563:646   */\n      or\n        /* \"#utility.yul\":540:679   */\n      tag_24\n      jumpi\n        /* \"#utility.yul\":659:677   */\n      tag_25\n      tag_16\n      jump\t// in\n    tag_25:\n        /* \"#utility.yul\":540:679   */\n    tag_24:\n        /* \"#utility.yul\":324:686   */\n      pop\n        /* \"#utility.yul\":276:686   */\n      swap3\n      swap2\n      pop\n      pop\n      jump\t// out\n        /* \"#utility.yul\":692:925   */\n    tag_13:\n        /* \"#utility.yul\":731:734   */\n      0x00\n        /* \"#utility.yul\":754:778   */\n      tag_27\n        /* \"#utility.yul\":772:777   */\n      dup3\n        /* \"#utility.yul\":754:778   */\n      tag_15\n      jump\t// in\n    tag_27:\n        /* \"#utility.yul\":745:778   */\n      swap2\n      pop\n        /* \"#utility.yul\":800:866   */\n      0xffffffffffffffffffffffffffffffffffffffffffffffffffffffffffffffff\n        /* \"#utility.yul\":793:798   */\n      dup3\n        /* \"#utility.yul\":790:867   */\n      sub\n        /* \"#utility.yul\":787:890   */\n      tag_28\n      jumpi\n        /* \"#utility.yul\":870:888   */\n      tag_29\n      tag_16\n      jump\t// in\n    tag_29:\n        /* \"#utility.yul\":787:890   */\n    tag_28:\n        /* \"#utility.yul\":917:918   */\n      0x01\n        /* \"#utility.yul\":910:915   */\n      dup3\n        /* \"#utility.yul\":906:919   */\n      add\n        /* \"#utility.yul\":899:919   */\n      swap1\n      pop\n        /* \"#utility.yul\":692:925   */\n      swap2\n      swap1\n      pop\n      jump\t// out\n\n    auxdata: 0xa2646970667358221220f4a91ab0e510f3a57ced5ac7ab895f9f0e9175f8a2f2df562ed81de91df6001464736f6c634300081e0033\n}\n",
				"bytecode": {
					"linkReferences": {},
					"object": "608060405260015f5560646001553480156017575f5ffd5b5061016e806100255f395ff3fe608060405234801561000f575f5ffd5b5060043610610029575f3560e01c80630e9b56ae1461002d575b5f5ffd5b610035610037565b005b5f5f90505f5f90505b6001545f5461004f91906100b0565b8111610076578180610060906100f1565b925050808061006e906100f1565b915050610040565b5050565b5f819050919050565b7f4e487b71000000000000000000000000000000000000000000000000000000005f52601160045260245ffd5b5f6100ba8261007a565b91506100c58361007a565b92508282026100d38161007a565b915082820484148315176100ea576100e9610083565b5b5092915050565b5f6100fb8261007a565b91507fffffffffffffffffffffffffffffffffffffffffffffffffffffffffffffffff820361012d5761012c610083565b5b60018201905091905056fea2646970667358221220f4a91ab0e510f3a57ced5ac7ab895f9f0e9175f8a2f2df562ed81de91df6001464736f6c634300081e0033",
					"opcodes": "PUSH1 0x80 PUSH1 0x40 MSTORE PUSH1 0x1 PUSH0 SSTORE PUSH1 0x64 PUSH1 0x1 SSTORE CALLVALUE DUP1 ISZERO PUSH1 0x17 JUMPI PUSH0 PUSH0 REVERT JUMPDEST POP PUSH2 0x16E DUP1 PUSH2 0x25 PUSH0 CODECOPY PUSH0 RETURN INVALID PUSH1 0x80 PUSH1 0x40 MSTORE CALLVALUE DUP1 ISZERO PUSH2 0xF JUMPI PUSH0 PUSH0 REVERT JUMPDEST POP PUSH1 0x4 CALLDATASIZE LT PUSH2 0x29 JUMPI PUSH0 CALLDATALOAD PUSH1 0xE0 SHR DUP1 PUSH4 0xE9B56AE EQ PUSH2 0x2D JUMPI JUMPDEST PUSH0 PUSH0 REVERT JUMPDEST PUSH2 0x35 PUSH2 0x37 JUMP JUMPDEST STOP JUMPDEST PUSH0 PUSH0 SWAP1 POP PUSH0 PUSH0 SWAP1 POP JUMPDEST PUSH1 0x1 SLOAD PUSH0 SLOAD PUSH2 0x4F SWAP2 SWAP1 PUSH2 0xB0 JUMP JUMPDEST DUP2 GT PUSH2 0x76 JUMPI DUP2 DUP1 PUSH2 0x60 SWAP1 PUSH2 0xF1 JUMP JUMPDEST SWAP3 POP POP DUP1 DUP1 PUSH2 0x6E SWAP1 PUSH2 0xF1 JUMP JUMPDEST SWAP2 POP POP PUSH2 0x40 JUMP JUMPDEST POP POP JUMP JUMPDEST PUSH0 DUP2 SWAP1 POP SWAP2 SWAP1 POP JUMP JUMPDEST PUSH32 0x4E487B7100000000000000000000000000000000000000000000000000000000 PUSH0 MSTORE PUSH1 0x11 PUSH1 0x4 MSTORE PUSH1 0x24 PUSH0 REVERT JUMPDEST PUSH0 PUSH2 0xBA DUP3 PUSH2 0x7A JUMP JUMPDEST SWAP2 POP PUSH2 0xC5 DUP4 PUSH2 0x7A JUMP JUMPDEST SWAP3 POP DUP3 DUP3 MUL PUSH2 0xD3 DUP2 PUSH2 0x7A JUMP JUMPDEST SWAP2 POP DUP3 DUP3 DIV DUP5 EQ DUP4 ISZERO OR PUSH2 0xEA JUMPI PUSH2 0xE9 PUSH2 0x83 JUMP JUMPDEST JUMPDEST POP SWAP3 SWAP2 POP POP JUMP JUMPDEST PUSH0 PUSH2 0xFB DUP3 PUSH2 0x7A JUMP JUMPDEST SWAP2 POP PUSH32 0xFFFFFFFFFFFFFFFFFFFFFFFFFFFFFFFFFFFFFFFFFFFFFFFFFFFFFFFFFFFFFFFF DUP3 SUB PUSH2 0x12D JUMPI PUSH2 0x12C PUSH2 0x83 JUMP JUMPDEST JUMPDEST PUSH1 0x1 DUP3 ADD SWAP1 POP SWAP2 SWAP1 POP JUMP INVALID LOG2 PUSH5 0x6970667358 0x22 SLT KECCAK256 DELEGATECALL 0xA9 BYTE 0xB0 JUMPF 0x10F3 0xA5 PUSH29 0xED5AC7AB895F9F0E9175F8A2F2DF562ED81DE91DF6001464736F6C6343 STOP ADDMOD 0x1E STOP CALLER "
				},
				"gasEstimates": {
					"creation": {
						"codeDepositCost": "73200",
						"executionCost": "44332",
						"totalCost": "117532"
					},
					"external": {
						"p10()": "infinite"
					}
				},
				"methodIdentifiers": {
					"p10()": "0e9b56ae"
				}
			},
			"storageLayout": {
				"storage": [
					{
						"astId": 4,
						"contract": "Repeat calculation/pattern 10_2/unoptimized code 10_2.sol:C",
						"label": "a",
						"offset": 0,
						"slot": "0",
						"type": "t_uint256"
					},
					{
						"astId": 7,
						"contract": "Repeat calculation/pattern 10_2/unoptimized code 10_2.sol:C",
						"label": "b",
						"offset": 0,
						"slot": "1",
						"type": "t_uint256"
					}
				],
				"types": {
					"t_uint256": {
						"encoding": "inplace",
						"label": "uint256",
						"numberOfBytes": "32"
					}
				}
			},
			"userdoc": {
				"kind": "user",
				"methods": {},
				"version": 1
			}
		}
	}
}