{
	"Loop condition repeat/unoptimized code Loop condition repeat.sol": {
		"C": {
			"abi": [
				{
					"inputs": [
						{
							"internalType": "uint256",
							"name": "x",
							"type": "uint256"
						}
					],
					"name": "p9",
					"outputs": [],
					"stateMutability": "nonpayable",
					"type": "function"
				}
			],
			"devdoc": {
				"kind": "dev",
				"methods": {},
				"version": 1
			},
			"evm": {
				"assembly": "    /* \"Loop condition repeat/unoptimized code Loop condition repeat.sol\":47:236  contract C {... */\n  mstore(0x40, 0x80)\n  callvalue\n  dup1\n  iszero\n  tag_1\n  jumpi\n  revert(0x00, 0x00)\ntag_1:\n  pop\n  dataSize(sub_0)\n  dup1\n  dataOffset(sub_0)\n  0x00\n  codecopy\n  0x00\n  return\nstop\n\nsub_0: assembly {\n        /* \"Loop condition repeat/unoptimized code Loop condition repeat.sol\":47:236  contract C {... */\n      mstore(0x40, 0x80)\n      callvalue\n      dup1\n      iszero\n      tag_1\n      jumpi\n      revert(0x00, 0x00)\n    tag_1:\n      pop\n      jumpi(tag_2, lt(calldatasize, 0x04))\n      shr(0xe0, calldataload(0x00))\n      dup1\n      0x41c7d663\n      eq\n      tag_3\n      jumpi\n    tag_2:\n      revert(0x00, 0x00)\n        /* \"Loop condition repeat/unoptimized code Loop condition repeat.sol\":65:233  function p9(uint x) public{... */\n    tag_3:\n      tag_4\n      0x04\n      dup1\n      calldatasize\n      sub\n      dup2\n      add\n      swap1\n      tag_5\n      swap2\n      swap1\n      tag_6\n      jump\t// in\n    tag_5:\n      tag_7\n      jump\t// in\n    tag_4:\n      stop\n    tag_7:\n        /* \"Loop condition repeat/unoptimized code Loop condition repeat.sol\":102:108  uint m */\n      0x00\n        /* \"Loop condition repeat/unoptimized code Loop condition repeat.sol\":119:125  uint n */\n      0x00\n        /* \"Loop condition repeat/unoptimized code Loop condition repeat.sol\":140:146  uint i */\n      0x00\n        /* \"Loop condition repeat/unoptimized code Loop condition repeat.sol\":147:148  0 */\n      0x00\n        /* \"Loop condition repeat/unoptimized code Loop condition repeat.sol\":140:148  uint i=0 */\n      swap1\n      pop\n        /* \"Loop condition repeat/unoptimized code Loop condition repeat.sol\":136:175  for(uint i=0;i<x;i++)... */\n    tag_9:\n        /* \"Loop condition repeat/unoptimized code Loop condition repeat.sol\":151:152  x */\n      dup4\n        /* \"Loop condition repeat/unoptimized code Loop condition repeat.sol\":149:150  i */\n      dup2\n        /* \"Loop condition repeat/unoptimized code Loop condition repeat.sol\":149:152  i<x */\n      lt\n        /* \"Loop condition repeat/unoptimized code Loop condition repeat.sol\":136:175  for(uint i=0;i<x;i++)... */\n      iszero\n      tag_10\n      jumpi\n        /* \"Loop condition repeat/unoptimized code Loop condition repeat.sol\":174:175  i */\n      dup1\n        /* \"Loop condition repeat/unoptimized code Loop condition repeat.sol\":171:175  m+=i */\n      dup4\n      tag_12\n      swap2\n      swap1\n      tag_13\n      jump\t// in\n    tag_12:\n      swap3\n      pop\n        /* \"Loop condition repeat/unoptimized code Loop condition repeat.sol\":153:156  i++ */\n      dup1\n      dup1\n      0x01\n      add\n      swap2\n      pop\n      pop\n        /* \"Loop condition repeat/unoptimized code Loop condition repeat.sol\":136:175  for(uint i=0;i<x;i++)... */\n      jump(tag_9)\n    tag_10:\n      pop\n        /* \"Loop condition repeat/unoptimized code Loop condition repeat.sol\":190:196  uint j */\n      0x00\n        /* \"Loop condition repeat/unoptimized code Loop condition repeat.sol\":197:198  0 */\n      0x00\n        /* \"Loop condition repeat/unoptimized code Loop condition repeat.sol\":190:198  uint j=0 */\n      swap1\n      pop\n        /* \"Loop condition repeat/unoptimized code Loop condition repeat.sol\":186:225  for(uint j=0;j<x;j++)... */\n    tag_14:\n        /* \"Loop condition repeat/unoptimized code Loop condition repeat.sol\":201:202  x */\n      dup4\n        /* \"Loop condition repeat/unoptimized code Loop condition repeat.sol\":199:200  j */\n      dup2\n        /* \"Loop condition repeat/unoptimized code Loop condition repeat.sol\":199:202  j<x */\n      lt\n        /* \"Loop condition repeat/unoptimized code Loop condition repeat.sol\":186:225  for(uint j=0;j<x;j++)... */\n      iszero\n      tag_15\n      jumpi\n        /* \"Loop condition repeat/unoptimized code Loop condition repeat.sol\":224:225  j */\n      dup1\n        /* \"Loop condition repeat/unoptimized code Loop condition repeat.sol\":221:225  n+=j */\n      dup3\n      tag_17\n      swap2\n      swap1\n      tag_13\n      jump\t// in\n    tag_17:\n      swap2\n      pop\n        /* \"Loop condition repeat/unoptimized code Loop condition repeat.sol\":203:206  j++ */\n      dup1\n      dup1\n      0x01\n      add\n      swap2\n      pop\n      pop\n        /* \"Loop condition repeat/unoptimized code Loop condition repeat.sol\":186:225  for(uint j=0;j<x;j++)... */\n      jump(tag_14)\n    tag_15:\n      pop\n        /* \"Loop condition repeat/unoptimized code Loop condition repeat.sol\":91:233  {... */\n      pop\n      pop\n        /* \"Loop condition repeat/unoptimized code Loop condition repeat.sol\":65:233  function p9(uint x) public{... */\n      pop\n      jump\t// out\n        /* \"#utility.yul\":88:205   */\n    tag_19:\n        /* \"#utility.yul\":197:198   */\n      0x00\n        /* \"#utility.yul\":194:195   */\n      0x00\n        /* \"#utility.yul\":187:199   */\n      revert\n        /* \"#utility.yul\":334:411   */\n    tag_21:\n        /* \"#utility.yul\":371:378   */\n      0x00\n        /* \"#utility.yul\":400:405   */\n      dup2\n        /* \"#utility.yul\":389:405   */\n      swap1\n      pop\n        /* \"#utility.yul\":334:411   */\n      swap2\n      swap1\n      pop\n      jump\t// out\n        /* \"#utility.yul\":417:539   */\n    tag_22:\n        /* \"#utility.yul\":490:514   */\n      tag_31\n        /* \"#utility.yul\":508:513   */\n      dup2\n        /* \"#utility.yul\":490:514   */\n      tag_21\n      jump\t// in\n    tag_31:\n        /* \"#utility.yul\":483:488   */\n      dup2\n        /* \"#utility.yul\":480:515   */\n      eq\n        /* \"#utility.yul\":470:533   */\n      tag_32\n      jumpi\n        /* \"#utility.yul\":529:530   */\n      0x00\n        /* \"#utility.yul\":526:527   */\n      0x00\n        /* \"#utility.yul\":519:531   */\n      revert\n        /* \"#utility.yul\":470:533   */\n    tag_32:\n        /* \"#utility.yul\":417:539   */\n      pop\n      jump\t// out\n        /* \"#utility.yul\":545:684   */\n    tag_23:\n        /* \"#utility.yul\":591:596   */\n      0x00\n        /* \"#utility.yul\":629:635   */\n      dup2\n        /* \"#utility.yul\":616:636   */\n      calldataload\n        /* \"#utility.yul\":607:636   */\n      swap1\n      pop\n        /* \"#utility.yul\":645:678   */\n      tag_34\n        /* \"#utility.yul\":672:677   */\n      dup2\n        /* \"#utility.yul\":645:678   */\n      tag_22\n      jump\t// in\n    tag_34:\n        /* \"#utility.yul\":545:684   */\n      swap3\n      swap2\n      pop\n      pop\n      jump\t// out\n        /* \"#utility.yul\":690:1019   */\n    tag_6:\n        /* \"#utility.yul\":749:755   */\n      0x00\n        /* \"#utility.yul\":798:800   */\n      0x20\n        /* \"#utility.yul\":786:795   */\n      dup3\n        /* \"#utility.yul\":777:784   */\n      dup5\n        /* \"#utility.yul\":773:796   */\n      sub\n        /* \"#utility.yul\":769:801   */\n      slt\n        /* \"#utility.yul\":766:885   */\n      iszero\n      tag_36\n      jumpi\n        /* \"#utility.yul\":804:883   */\n      tag_37\n      tag_19\n      jump\t// in\n    tag_37:\n        /* \"#utility.yul\":766:885   */\n    tag_36:\n        /* \"#utility.yul\":924:925   */\n      0x00\n        /* \"#utility.yul\":949:1002   */\n      tag_38\n        /* \"#utility.yul\":994:1001   */\n      dup5\n        /* \"#utility.yul\":985:991   */\n      dup3\n        /* \"#utility.yul\":974:983   */\n      dup6\n        /* \"#utility.yul\":970:992   */\n      add\n        /* \"#utility.yul\":949:1002   */\n      tag_23\n      jump\t// in\n    tag_38:\n        /* \"#utility.yul\":939:1002   */\n      swap2\n      pop\n        /* \"#utility.yul\":895:1012   */\n      pop\n        /* \"#utility.yul\":690:1019   */\n      swap3\n      swap2\n      pop\n      pop\n      jump\t// out\n        /* \"#utility.yul\":1025:1205   */\n    tag_24:\n        /* \"#utility.yul\":1073:1150   */\n      0x4e487b7100000000000000000000000000000000000000000000000000000000\n        /* \"#utility.yul\":1070:1071   */\n      0x00\n        /* \"#utility.yul\":1063:1151   */\n      mstore\n        /* \"#utility.yul\":1170:1174   */\n      0x11\n        /* \"#utility.yul\":1167:1168   */\n      0x04\n        /* \"#utility.yul\":1160:1175   */\n      mstore\n        /* \"#utility.yul\":1194:1198   */\n      0x24\n        /* \"#utility.yul\":1191:1192   */\n      0x00\n        /* \"#utility.yul\":1184:1199   */\n      revert\n        /* \"#utility.yul\":1211:1402   */\n    tag_13:\n        /* \"#utility.yul\":1251:1254   */\n      0x00\n        /* \"#utility.yul\":1270:1290   */\n      tag_41\n        /* \"#utility.yul\":1288:1289   */\n      dup3\n        /* \"#utility.yul\":1270:1290   */\n      tag_21\n      jump\t// in\n    tag_41:\n        /* \"#utility.yul\":1265:1290   */\n      swap2\n      pop\n        /* \"#utility.yul\":1304:1324   */\n      tag_42\n        /* \"#utility.yul\":1322:1323   */\n      dup4\n        /* \"#utility.yul\":1304:1324   */\n      tag_21\n      jump\t// in\n    tag_42:\n        /* \"#utility.yul\":1299:1324   */\n      swap3\n      pop\n        /* \"#utility.yul\":1347:1348   */\n      dup3\n        /* \"#utility.yul\":1344:1345   */\n      dup3\n        /* \"#utility.yul\":1340:1349   */\n      add\n        /* \"#utility.yul\":1333:1349   */\n      swap1\n      pop\n        /* \"#utility.yul\":1368:1371   */\n      dup1\n        /* \"#utility.yul\":1365:1366   */\n      dup3\n        /* \"#utility.yul\":1362:1372   */\n      gt\n        /* \"#utility.yul\":1359:1395   */\n      iszero\n      tag_43\n      jumpi\n        /* \"#utility.yul\":1375:1393   */\n      tag_44\n      tag_24\n      jump\t// in\n    tag_44:\n        /* \"#utility.yul\":1359:1395   */\n    tag_43:\n        /* \"#utility.yul\":1211:1402   */\n      swap3\n      swap2\n      pop\n      pop\n      jump\t// out\n\n    auxdata: 0xa26469706673582212206c919ea1f3aa60be21ee9f76bb246b6e25d20e2c5a29555c5622c90b50ee0dbf64736f6c634300081e0033\n}\n",
				"bytecode": {
					"linkReferences": {},
					"object": "6080604052348015600e575f5ffd5b5061019a8061001c5f395ff3fe608060405234801561000f575f5ffd5b5060043610610029575f3560e01c806341c7d6631461002d575b5f5ffd5b610047600480360381019061004291906100d9565b610049565b005b5f5f5f5f90505b838110156100735780836100649190610131565b92508080600101915050610050565b505f5f90505b8381101561009c57808261008d9190610131565b91508080600101915050610079565b50505050565b5f5ffd5b5f819050919050565b6100b8816100a6565b81146100c2575f5ffd5b50565b5f813590506100d3816100af565b92915050565b5f602082840312156100ee576100ed6100a2565b5b5f6100fb848285016100c5565b91505092915050565b7f4e487b71000000000000000000000000000000000000000000000000000000005f52601160045260245ffd5b5f61013b826100a6565b9150610146836100a6565b925082820190508082111561015e5761015d610104565b5b9291505056fea26469706673582212206c919ea1f3aa60be21ee9f76bb246b6e25d20e2c5a29555c5622c90b50ee0dbf64736f6c634300081e0033",
					"opcodes": "PUSH1 0x80 PUSH1 0x40 MSTORE CALLVALUE DUP1 ISZERO PUSH1 0xE JUMPI PUSH0 PUSH0 REVERT JUMPDEST POP PUSH2 0x19A DUP1 PUSH2 0x1C PUSH0 CODECOPY PUSH0 RETURN INVALID PUSH1 0x80 PUSH1 0x40 MSTORE CALLVALUE DUP1 ISZERO PUSH2 0xF JUMPI PUSH0 PUSH0 REVERT JUMPDEST POP PUSH1 0x4 CALLDATASIZE LT PUSH2 0x29 JUMPI PUSH0 CALLDATALOAD PUSH1 0xE0 SHR DUP1 PUSH4 0x41C7D663 EQ PUSH2 0x2D JUMPI JUMPDEST PUSH0 PUSH0 REVERT JUMPDEST PUSH2 0x47 PUSH1 0x4 DUP1 CALLDATASIZE SUB DUP2 ADD SWAP1 PUSH2 0x42 SWAP2 SWAP1 PUSH2 0xD9 JUMP JUMPDEST PUSH2 0x49 JUMP JUMPDEST STOP JUMPDEST PUSH0 PUSH0 PUSH0 PUSH0 SWAP1 POP JUMPDEST DUP4 DUP2 LT ISZERO PUSH2 0x73 JUMPI DUP1 DUP4 PUSH2 0x64 SWAP2 SWAP1 PUSH2 0x131 JUMP JUMPDEST SWAP3 POP DUP1 DUP1 PUSH1 0x1 ADD SWAP2 POP POP PUSH2 0x50 JUMP JUMPDEST POP PUSH0 PUSH0 SWAP1 POP JUMPDEST DUP4 DUP2 LT ISZERO PUSH2 0x9C JUMPI DUP1 DUP3 PUSH2 0x8D SWAP2 SWAP1 PUSH2 0x131 JUMP JUMPDEST SWAP2 POP DUP1 DUP1 PUSH1 0x1 ADD SWAP2 POP POP PUSH2 0x79 JUMP JUMPDEST POP POP POP POP JUMP JUMPDEST PUSH0 PUSH0 REVERT JUMPDEST PUSH0 DUP2 SWAP1 POP SWAP2 SWAP1 POP JUMP JUMPDEST PUSH2 0xB8 DUP2 PUSH2 0xA6 JUMP JUMPDEST DUP2 EQ PUSH2 0xC2 JUMPI PUSH0 PUSH0 REVERT JUMPDEST POP JUMP JUMPDEST PUSH0 DUP2 CALLDATALOAD SWAP1 POP PUSH2 0xD3 DUP2 PUSH2 0xAF JUMP JUMPDEST SWAP3 SWAP2 POP POP JUMP JUMPDEST PUSH0 PUSH1 0x20 DUP3 DUP5 SUB SLT ISZERO PUSH2 0xEE JUMPI PUSH2 0xED PUSH2 0xA2 JUMP JUMPDEST JUMPDEST PUSH0 PUSH2 0xFB DUP5 DUP3 DUP6 ADD PUSH2 0xC5 JUMP JUMPDEST SWAP2 POP POP SWAP3 SWAP2 POP POP JUMP JUMPDEST PUSH32 0x4E487B7100000000000000000000000000000000000000000000000000000000 PUSH0 MSTORE PUSH1 0x11 PUSH1 0x4 MSTORE PUSH1 0x24 PUSH0 REVERT JUMPDEST PUSH0 PUSH2 0x13B DUP3 PUSH2 0xA6 JUMP JUMPDEST SWAP2 POP PUSH2 0x146 DUP4 PUSH2 0xA6 JUMP JUMPDEST SWAP3 POP DUP3 DUP3 ADD SWAP1 POP DUP1 DUP3 GT ISZERO PUSH2 0x15E JUMPI PUSH2 0x15D PUSH2 0x104 JUMP JUMPDEST JUMPDEST SWAP3 SWAP2 POP POP JUMP INVALID LOG2 PUSH5 0x6970667358 0x22 SLT KECCAK256 PUSH13 0x919EA1F3AA60BE21EE9F76BB24 PUSH12 0x6E25D20E2C5A29555C5622C9 SIGNEXTEND POP RETURNCONTRACT 0xD 0xBF PUSH5 0x736F6C6343 STOP ADDMOD 0x1E STOP CALLER "
				},
				"gasEstimates": {
					"creation": {
						"codeDepositCost": "82000",
						"executionCost": "127",
						"totalCost": "82127"
					},
					"external": {
						"p9(uint256)": "infinite"
					}
				},
				"methodIdentifiers": {
					"p9(uint256)": "41c7d663"
				}
			},
			"storageLayout": {
				"storage": [],
				"types": null
			},
			"userdoc": {
				"kind": "user",
				"methods": {},
				"version": 1
			}
		}
	}
}