{
	"Repeat calculation/pattern 10_2/optimized code 10_2.sol": {
		"C": {
			"abi": [
				{
					"inputs": [],
					"name": "p10",
					"outputs": [],
					"stateMutability": "nonpayable",
					"type": "function"
				}
			],
			"devdoc": {
				"kind": "dev",
				"methods": {},
				"version": 1
			},
			"evm": {
				"assembly": "    /* \"Repeat calculation/pattern 10_2/optimized code 10_2.sol\":45:248  contract C {... */\n  mstore(0x40, 0x80)\n    /* \"Repeat calculation/pattern 10_2/optimized code 10_2.sol\":72:73  1 */\n  0x01\n    /* \"Repeat calculation/pattern 10_2/optimized code 10_2.sol\":63:73  uint a = 1 */\n  0x00\n  sstore\n    /* \"Repeat calculation/pattern 10_2/optimized code 10_2.sol\":89:92  100 */\n  0x64\n    /* \"Repeat calculation/pattern 10_2/optimized code 10_2.sol\":80:92  uint b = 100 */\n  0x01\n  sstore\n    /* \"Repeat calculation/pattern 10_2/optimized code 10_2.sol\":112:113  b */\n  sload(0x01)\n    /* \"Repeat calculation/pattern 10_2/optimized code 10_2.sol\":108:109  a */\n  sload(0x00)\n    /* \"Repeat calculation/pattern 10_2/optimized code 10_2.sol\":108:113  a * b */\n  tag_1\n  swap2\n  swap1\n  tag_2\n  jump\t// in\ntag_1:\n    /* \"Repeat calculation/pattern 10_2/optimized code 10_2.sol\":99:113  uint c = a * b */\n  0x02\n  sstore\n    /* \"Repeat calculation/pattern 10_2/optimized code 10_2.sol\":45:248  contract C {... */\n  callvalue\n  dup1\n  iszero\n  tag_3\n  jumpi\n  revert(0x00, 0x00)\ntag_3:\n  pop\n  jump(tag_4)\n    /* \"#utility.yul\":7:84   */\ntag_5:\n    /* \"#utility.yul\":44:51   */\n  0x00\n    /* \"#utility.yul\":73:78   */\n  dup2\n    /* \"#utility.yul\":62:78   */\n  swap1\n  pop\n    /* \"#utility.yul\":7:84   */\n  swap2\n  swap1\n  pop\n  jump\t// out\n    /* \"#utility.yul\":90:270   */\ntag_6:\n    /* \"#utility.yul\":138:215   */\n  0x4e487b7100000000000000000000000000000000000000000000000000000000\n    /* \"#utility.yul\":135:136   */\n  0x00\n    /* \"#utility.yul\":128:216   */\n  mstore\n    /* \"#utility.yul\":235:239   */\n  0x11\n    /* \"#utility.yul\":232:233   */\n  0x04\n    /* \"#utility.yul\":225:240   */\n  mstore\n    /* \"#utility.yul\":259:263   */\n  0x24\n    /* \"#utility.yul\":256:257   */\n  0x00\n    /* \"#utility.yul\":249:264   */\n  revert\n    /* \"#utility.yul\":276:686   */\ntag_2:\n    /* \"#utility.yul\":316:323   */\n  0x00\n    /* \"#utility.yul\":339:359   */\n  tag_11\n    /* \"#utility.yul\":357:358   */\n  dup3\n    /* \"#utility.yul\":339:359   */\n  tag_5\n  jump\t// in\ntag_11:\n    /* \"#utility.yul\":334:359   */\n  swap2\n  pop\n    /* \"#utility.yul\":373:393   */\n  tag_12\n    /* \"#utility.yul\":391:392   */\n  dup4\n    /* \"#utility.yul\":373:393   */\n  tag_5\n  jump\t// in\ntag_12:\n    /* \"#utility.yul\":368:393   */\n  swap3\n  pop\n    /* \"#utility.yul\":428:429   */\n  dup3\n    /* \"#utility.yul\":425:426   */\n  dup3\n    /* \"#utility.yul\":421:430   */\n  mul\n    /* \"#utility.yul\":450:480   */\n  tag_13\n    /* \"#utility.yul\":468:479   */\n  dup2\n    /* \"#utility.yul\":450:480   */\n  tag_5\n  jump\t// in\ntag_13:\n    /* \"#utility.yul\":439:480   */\n  swap2\n  pop\n    /* \"#utility.yul\":629:630   */\n  dup3\n    /* \"#utility.yul\":620:627   */\n  dup3\n    /* \"#utility.yul\":616:631   */\n  div\n    /* \"#utility.yul\":613:614   */\n  dup5\n    /* \"#utility.yul\":610:632   */\n  eq\n    /* \"#utility.yul\":590:591   */\n  dup4\n    /* \"#utility.yul\":583:592   */\n  iszero\n    /* \"#utility.yul\":563:646   */\n  or\n    /* \"#utility.yul\":540:679   */\n  tag_14\n  jumpi\n    /* \"#utility.yul\":659:677   */\n  tag_15\n  tag_6\n  jump\t// in\ntag_15:\n    /* \"#utility.yul\":540:679   */\ntag_14:\n    /* \"#utility.yul\":324:686   */\n  pop\n    /* \"#utility.yul\":276:686   */\n  swap3\n  swap2\n  pop\n  pop\n  jump\t// out\n    /* \"Repeat calculation/pattern 10_2/optimized code 10_2.sol\":45:248  contract C {... */\ntag_4:\n  dataSize(sub_0)\n  dup1\n  dataOffset(sub_0)\n  0x00\n  codecopy\n  0x00\n  return\nstop\n\nsub_0: assembly {\n        /* \"Repeat calculation/pattern 10_2/optimized code 10_2.sol\":45:248  contract C {... */\n      mstore(0x40, 0x80)\n      callvalue\n      dup1\n      iszero\n      tag_1\n      jumpi\n      revert(0x00, 0x00)\n    tag_1:\n      pop\n      jumpi(tag_2, lt(calldatasize, 0x04))\n      shr(0xe0, calldataload(0x00))\n      dup1\n      0x0e9b56ae\n      eq\n      tag_3\n      jumpi\n    tag_2:\n      revert(0x00, 0x00)\n        /* \"Repeat calculation/pattern 10_2/optimized code 10_2.sol\":120:245  function p10() public  {... */\n    tag_3:\n      tag_4\n      tag_5\n      jump\t// in\n    tag_4:\n      stop\n    tag_5:\n        /* \"Repeat calculation/pattern 10_2/optimized code 10_2.sol\":154:162  uint sum */\n      0x00\n        /* \"Repeat calculation/pattern 10_2/optimized code 10_2.sol\":165:166  0 */\n      0x00\n        /* \"Repeat calculation/pattern 10_2/optimized code 10_2.sol\":154:166  uint sum = 0 */\n      swap1\n      pop\n        /* \"Repeat calculation/pattern 10_2/optimized code 10_2.sol\":181:187  uint i */\n      0x00\n        /* \"Repeat calculation/pattern 10_2/optimized code 10_2.sol\":190:191  0 */\n      0x00\n        /* \"Repeat calculation/pattern 10_2/optimized code 10_2.sol\":181:191  uint i = 0 */\n      swap1\n      pop\n        /* \"Repeat calculation/pattern 10_2/optimized code 10_2.sol\":177:238  for(uint i = 0; i <= c; i++) {... */\n    tag_7:\n        /* \"Repeat calculation/pattern 10_2/optimized code 10_2.sol\":198:199  c */\n      sload(0x02)\n        /* \"Repeat calculation/pattern 10_2/optimized code 10_2.sol\":193:194  i */\n      dup2\n        /* \"Repeat calculation/pattern 10_2/optimized code 10_2.sol\":193:199  i <= c */\n      gt\n        /* \"Repeat calculation/pattern 10_2/optimized code 10_2.sol\":177:238  for(uint i = 0; i <= c; i++) {... */\n      tag_8\n      jumpi\n        /* \"Repeat calculation/pattern 10_2/optimized code 10_2.sol\":221:226  sum++ */\n      dup2\n      dup1\n      tag_10\n      swap1\n      tag_11\n      jump\t// in\n    tag_10:\n      swap3\n      pop\n      pop\n        /* \"Repeat calculation/pattern 10_2/optimized code 10_2.sol\":201:204  i++ */\n      dup1\n      dup1\n      tag_12\n      swap1\n      tag_11\n      jump\t// in\n    tag_12:\n      swap2\n      pop\n      pop\n        /* \"Repeat calculation/pattern 10_2/optimized code 10_2.sol\":177:238  for(uint i = 0; i <= c; i++) {... */\n      jump(tag_7)\n    tag_8:\n      pop\n        /* \"Repeat calculation/pattern 10_2/optimized code 10_2.sol\":143:245  {... */\n      pop\n        /* \"Repeat calculation/pattern 10_2/optimized code 10_2.sol\":120:245  function p10() public  {... */\n      jump\t// out\n        /* \"#utility.yul\":7:187   */\n    tag_13:\n        /* \"#utility.yul\":55:132   */\n      0x4e487b7100000000000000000000000000000000000000000000000000000000\n        /* \"#utility.yul\":52:53   */\n      0x00\n        /* \"#utility.yul\":45:133   */\n      mstore\n        /* \"#utility.yul\":152:156   */\n      0x11\n        /* \"#utility.yul\":149:150   */\n      0x04\n        /* \"#utility.yul\":142:157   */\n      mstore\n        /* \"#utility.yul\":176:180   */\n      0x24\n        /* \"#utility.yul\":173:174   */\n      0x00\n        /* \"#utility.yul\":166:181   */\n      revert\n        /* \"#utility.yul\":193:270   */\n    tag_14:\n        /* \"#utility.yul\":230:237   */\n      0x00\n        /* \"#utility.yul\":259:264   */\n      dup2\n        /* \"#utility.yul\":248:264   */\n      swap1\n      pop\n        /* \"#utility.yul\":193:270   */\n      swap2\n      swap1\n      pop\n      jump\t// out\n        /* \"#utility.yul\":276:509   */\n    tag_11:\n        /* \"#utility.yul\":315:318   */\n      0x00\n        /* \"#utility.yul\":338:362   */\n      tag_19\n        /* \"#utility.yul\":356:361   */\n      dup3\n        /* \"#utility.yul\":338:362   */\n      tag_14\n      jump\t// in\n    tag_19:\n        /* \"#utility.yul\":329:362   */\n      swap2\n      pop\n        /* \"#utility.yul\":384:450   */\n      0xffffffffffffffffffffffffffffffffffffffffffffffffffffffffffffffff\n        /* \"#utility.yul\":377:382   */\n      dup3\n        /* \"#utility.yul\":374:451   */\n      sub\n        /* \"#utility.yul\":371:474   */\n      tag_20\n      jumpi\n        /* \"#utility.yul\":454:472   */\n      tag_21\n      tag_13\n      jump\t// in\n    tag_21:\n        /* \"#utility.yul\":371:474   */\n    tag_20:\n        /* \"#utility.yul\":501:502   */\n      0x01\n        /* \"#utility.yul\":494:499   */\n      dup3\n        /* \"#utility.yul\":490:503   */\n      add\n        /* \"#utility.yul\":483:503   */\n      swap1\n      pop\n        /* \"#utility.yul\":276:509   */\n      swap2\n      swap1\n      pop\n      jump\t// out\n\n    auxdata: 0xa26469706673582212205152dcf7e1e0caf9e0d68305e5876cbac657618927e5122af69d604dfc71306964736f6c634300081e0033\n}\n",
				"bytecode": {
					"linkReferences": {},
					"object": "608060405260015f5560646001556001545f54601a91906062565b6002553480156027575f5ffd5b50609a565b5f819050919050565b7f4e487b71000000000000000000000000000000000000000000000000000000005f52601160045260245ffd5b5f606a82602c565b9150607383602c565b9250828202607f81602c565b9150828204841483151760935760926035565b5b5092915050565b610111806100a75f395ff3fe6080604052348015600e575f5ffd5b50600436106026575f3560e01c80630e9b56ae14602a575b5f5ffd5b60306032565b005b5f5f90505f5f90505b6002548111605f578180604c906099565b92505080806058906099565b915050603b565b5050565b7f4e487b71000000000000000000000000000000000000000000000000000000005f52601160045260245ffd5b5f819050919050565b5f60a1826090565b91507fffffffffffffffffffffffffffffffffffffffffffffffffffffffffffffffff820360d05760cf6063565b5b60018201905091905056fea26469706673582212205152dcf7e1e0caf9e0d68305e5876cbac657618927e5122af69d604dfc71306964736f6c634300081e0033",
					"opcodes": "PUSH1 0x80 PUSH1 0x40 MSTORE PUSH1 0x1 PUSH0 SSTORE PUSH1 0x64 PUSH1 0x1 SSTORE PUSH1 0x1 SLOAD PUSH0 SLOAD PUSH1 0x1A SWAP2 SWAP1 PUSH1 0x62 JUMP JUMPDEST PUSH1 0x2 SSTORE CALLVALUE DUP1 ISZERO PUSH1 0x27 JUMPI PUSH0 PUSH0 REVERT JUMPDEST POP PUSH1 0x9A JUMP JUMPDEST PUSH0 DUP2 SWAP1 POP SWAP2 SWAP1 POP JUMP JUMPDEST PUSH32 0x4E487B7100000000000000000000000000000000000000000000000000000000 PUSH0 MSTORE PUSH1 0x11 PUSH1 0x4 MSTORE PUSH1 0x24 PUSH0 REVERT JUMPDEST PUSH0 PUSH1 0x6A DUP3 PUSH1 0x2C JUMP JUMPDEST SWAP2 POP PUSH1 0x73 DUP4 PUSH1 0x2C JUMP JUMPDEST SWAP3 POP DUP3 DUP3 MUL PUSH1 0x7F DUP2 PUSH1 0x2C JUMP JUMPDEST SWAP2 POP DUP3 DUP3 DIV DUP5 EQ DUP4 ISZERO OR PUSH1 0x93 JUMPI PUSH1 0x92 PUSH1 0x35 JUMP JUMPDEST JUMPDEST POP SWAP3 SWAP2 POP POP JUMP JUMPDEST PUSH2 0x111 DUP1 PUSH2 0xA7 PUSH0 CODECOPY PUSH0 RETURN INVALID PUSH1 0x80 PUSH1 0x40 MSTORE CALLVALUE DUP1 ISZERO PUSH1 0xE JUMPI PUSH0 PUSH0 REVERT JUMPDEST POP PUSH1 0x4 CALLDATASIZE LT PUSH1 0x26 JUMPI PUSH0 CALLDATALOAD PUSH1 0xE0 SHR DUP1 PUSH4 0xE9B56AE EQ PUSH1 0x2A JUMPI JUMPDEST PUSH0 PUSH0 REVERT JUMPDEST PUSH1 0x30 PUSH1 0x32 JUMP JUMPDEST STOP JUMPDEST PUSH0 PUSH0 SWAP1 POP PUSH0 PUSH0 SWAP1 POP JUMPDEST PUSH1 0x2 SLOAD DUP2 GT PUSH1 0x5F JUMPI DUP2 DUP1 PUSH1 0x4C SWAP1 PUSH1 0x99 JUMP JUMPDEST SWAP3 POP POP DUP1 DUP1 PUSH1 0x58 SWAP1 PUSH1 0x99 JUMP JUMPDEST SWAP2 POP POP PUSH1 0x3B JUMP JUMPDEST POP POP JUMP JUMPDEST PUSH32 0x4E487B7100000000000000000000000000000000000000000000000000000000 PUSH0 MSTORE PUSH1 0x11 PUSH1 0x4 MSTORE PUSH1 0x24 PUSH0 REVERT JUMPDEST PUSH0 DUP2 SWAP1 POP SWAP2 SWAP1 POP JUMP JUMPDEST PUSH0 PUSH1 0xA1 DUP3 PUSH1 0x90 JUMP JUMPDEST SWAP2 POP PUSH32 0xFFFFFFFFFFFFFFFFFFFFFFFFFFFFFFFFFFFFFFFFFFFFFFFFFFFFFFFFFFFFFFFF DUP3 SUB PUSH1 0xD0 JUMPI PUSH1 0xCF PUSH1 0x63 JUMP JUMPDEST JUMPDEST PUSH1 0x1 DUP3 ADD SWAP1 POP SWAP2 SWAP1 POP JUMP INVALID LOG2 PUSH5 0x6970667358 0x22 SLT KECCAK256 MLOAD MSTORE 0xDC 0xF7 RJUMPI 0xE0CA EXTDELEGATECALL RJUMP 0xD683 SDIV JUMPF 0x876C 0xBA 0xC6 JUMPI PUSH2 0x8927 JUMPF 0x122A 0xF6 SWAP14 PUSH1 0x4D 0xFC PUSH18 0x306964736F6C634300081E00330000000000 "
				},
				"gasEstimates": {
					"creation": {
						"codeDepositCost": "54600",
						"executionCost": "infinite",
						"totalCost": "infinite"
					},
					"external": {
						"p10()": "infinite"
					}
				},
				"methodIdentifiers": {
					"p10()": "0e9b56ae"
				}
			},
			"storageLayout": {
				"storage": [
					{
						"astId": 4,
						"contract": "Repeat calculation/pattern 10_2/optimized code 10_2.sol:C",
						"label": "a",
						"offset": 0,
						"slot": "0",
						"type": "t_uint256"
					},
					{
						"astId": 7,
						"contract": "Repeat calculation/pattern 10_2/optimized code 10_2.sol:C",
						"label": "b",
						"offset": 0,
						"slot": "1",
						"type": "t_uint256"
					},
					{
						"astId": 12,
						"contract": "Repeat calculation/pattern 10_2/optimized code 10_2.sol:C",
						"label": "c",
						"offset": 0,
						"slot": "2",
						"type": "t_uint256"
					}
				],
				"types": {
					"t_uint256": {
						"encoding": "inplace",
						"label": "uint256",
						"numberOfBytes": "32"
					}
				}
			},
			"userdoc": {
				"kind": "user",
				"methods": {},
				"version": 1
			}
		}
	}
}