{
	"Redundancy Checks Caused by SafeMath Library/Require/unoptimized code require.sol": {
		"B": {
			"abi": [
				{
					"inputs": [
						{
							"internalType": "uint256",
							"name": "balance",
							"type": "uint256"
						},
						{
							"internalType": "uint256",
							"name": "amount",
							"type": "uint256"
						}
					],
					"name": "p5",
					"outputs": [],
					"stateMutability": "nonpayable",
					"type": "function"
				}
			],
			"devdoc": {
				"kind": "dev",
				"methods": {},
				"version": 1
			},
			"evm": {
				"assembly": "    /* \"Redundancy Checks Caused by SafeMath Library/Require/unoptimized code require.sol\":1050:1254  contract B {... */\n  mstore(0x40, 0x80)\n  callvalue\n  dup1\n  iszero\n  tag_1\n  jumpi\n  revert(0x00, 0x00)\ntag_1:\n  pop\n  dataSize(sub_0)\n  dup1\n  dataOffset(sub_0)\n  0x00\n  codecopy\n  0x00\n  return\nstop\n\nsub_0: assembly {\n        /* \"Redundancy Checks Caused by SafeMath Library/Require/unoptimized code require.sol\":1050:1254  contract B {... */\n      mstore(0x40, 0x80)\n      callvalue\n      dup1\n      iszero\n      tag_1\n      jumpi\n      revert(0x00, 0x00)\n    tag_1:\n      pop\n      jumpi(tag_2, lt(calldatasize, 0x04))\n      shr(0xe0, calldataload(0x00))\n      dup1\n      0x75184f0d\n      eq\n      tag_3\n      jumpi\n    tag_2:\n      revert(0x00, 0x00)\n        /* \"Redundancy Checks Caused by SafeMath Library/Require/unoptimized code require.sol\":1108:1247  function p5(uint256 balance,uint256 amount ) public {... */\n    tag_3:\n      tag_4\n      0x04\n      dup1\n      calldatasize\n      sub\n      dup2\n      add\n      swap1\n      tag_5\n      swap2\n      swap1\n      tag_6\n      jump\t// in\n    tag_5:\n      tag_7\n      jump\t// in\n    tag_4:\n      stop\n    tag_7:\n        /* \"Redundancy Checks Caused by SafeMath Library/Require/unoptimized code require.sol\":1189:1195  amount */\n      dup1\n        /* \"Redundancy Checks Caused by SafeMath Library/Require/unoptimized code require.sol\":1179:1186  balance */\n      dup3\n        /* \"Redundancy Checks Caused by SafeMath Library/Require/unoptimized code require.sol\":1179:1195  balance > amount */\n      gt\n        /* \"Redundancy Checks Caused by SafeMath Library/Require/unoptimized code require.sol\":1171:1196  require(balance > amount) */\n      tag_9\n      jumpi\n      revert(0x00, 0x00)\n    tag_9:\n        /* \"Redundancy Checks Caused by SafeMath Library/Require/unoptimized code require.sol\":1217:1236  balance.sub(amount) */\n      tag_10\n        /* \"Redundancy Checks Caused by SafeMath Library/Require/unoptimized code require.sol\":1229:1235  amount */\n      dup2\n        /* \"Redundancy Checks Caused by SafeMath Library/Require/unoptimized code require.sol\":1217:1224  balance */\n      dup4\n        /* \"Redundancy Checks Caused by SafeMath Library/Require/unoptimized code require.sol\":1217:1228  balance.sub */\n      tag_11\n      swap1\n        /* \"Redundancy Checks Caused by SafeMath Library/Require/unoptimized code require.sol\":1217:1236  balance.sub(amount) */\n      swap2\n      swap1\n      0xffffffff\n      and\n      jump\t// in\n    tag_10:\n        /* \"Redundancy Checks Caused by SafeMath Library/Require/unoptimized code require.sol\":1207:1236  balance = balance.sub(amount) */\n      swap2\n      pop\n        /* \"Redundancy Checks Caused by SafeMath Library/Require/unoptimized code require.sol\":1108:1247  function p5(uint256 balance,uint256 amount ) public {... */\n      pop\n      pop\n      jump\t// out\n        /* \"Redundancy Checks Caused by SafeMath Library/Require/unoptimized code require.sol\":603:753  function sub(uint256 a, uint256 b) internal pure returns (uint256) {... */\n    tag_11:\n        /* \"Redundancy Checks Caused by SafeMath Library/Require/unoptimized code require.sol\":661:668  uint256 */\n      0x00\n        /* \"Redundancy Checks Caused by SafeMath Library/Require/unoptimized code require.sol\":694:695  a */\n      dup3\n        /* \"Redundancy Checks Caused by SafeMath Library/Require/unoptimized code require.sol\":689:690  b */\n      dup3\n        /* \"Redundancy Checks Caused by SafeMath Library/Require/unoptimized code require.sol\":689:695  b <= a */\n      gt\n      iszero\n        /* \"Redundancy Checks Caused by SafeMath Library/Require/unoptimized code require.sol\":681:696  require(b <= a) */\n      tag_13\n      jumpi\n      revert(0x00, 0x00)\n    tag_13:\n        /* \"Redundancy Checks Caused by SafeMath Library/Require/unoptimized code require.sol\":707:716  uint256 c */\n      0x00\n        /* \"Redundancy Checks Caused by SafeMath Library/Require/unoptimized code require.sol\":723:724  b */\n      dup3\n        /* \"Redundancy Checks Caused by SafeMath Library/Require/unoptimized code require.sol\":719:720  a */\n      dup5\n        /* \"Redundancy Checks Caused by SafeMath Library/Require/unoptimized code require.sol\":719:724  a - b */\n      tag_14\n      swap2\n      swap1\n      tag_15\n      jump\t// in\n    tag_14:\n        /* \"Redundancy Checks Caused by SafeMath Library/Require/unoptimized code require.sol\":707:724  uint256 c = a - b */\n      swap1\n      pop\n        /* \"Redundancy Checks Caused by SafeMath Library/Require/unoptimized code require.sol\":744:745  c */\n      dup1\n        /* \"Redundancy Checks Caused by SafeMath Library/Require/unoptimized code require.sol\":737:745  return c */\n      swap2\n      pop\n      pop\n        /* \"Redundancy Checks Caused by SafeMath Library/Require/unoptimized code require.sol\":603:753  function sub(uint256 a, uint256 b) internal pure returns (uint256) {... */\n      swap3\n      swap2\n      pop\n      pop\n      jump\t// out\n        /* \"#utility.yul\":88:205   */\n    tag_17:\n        /* \"#utility.yul\":197:198   */\n      0x00\n        /* \"#utility.yul\":194:195   */\n      0x00\n        /* \"#utility.yul\":187:199   */\n      revert\n        /* \"#utility.yul\":334:411   */\n    tag_19:\n        /* \"#utility.yul\":371:378   */\n      0x00\n        /* \"#utility.yul\":400:405   */\n      dup2\n        /* \"#utility.yul\":389:405   */\n      swap1\n      pop\n        /* \"#utility.yul\":334:411   */\n      swap2\n      swap1\n      pop\n      jump\t// out\n        /* \"#utility.yul\":417:539   */\n    tag_20:\n        /* \"#utility.yul\":490:514   */\n      tag_29\n        /* \"#utility.yul\":508:513   */\n      dup2\n        /* \"#utility.yul\":490:514   */\n      tag_19\n      jump\t// in\n    tag_29:\n        /* \"#utility.yul\":483:488   */\n      dup2\n        /* \"#utility.yul\":480:515   */\n      eq\n        /* \"#utility.yul\":470:533   */\n      tag_30\n      jumpi\n        /* \"#utility.yul\":529:530   */\n      0x00\n        /* \"#utility.yul\":526:527   */\n      0x00\n        /* \"#utility.yul\":519:531   */\n      revert\n        /* \"#utility.yul\":470:533   */\n    tag_30:\n        /* \"#utility.yul\":417:539   */\n      pop\n      jump\t// out\n        /* \"#utility.yul\":545:684   */\n    tag_21:\n        /* \"#utility.yul\":591:596   */\n      0x00\n        /* \"#utility.yul\":629:635   */\n      dup2\n        /* \"#utility.yul\":616:636   */\n      calldataload\n        /* \"#utility.yul\":607:636   */\n      swap1\n      pop\n        /* \"#utility.yul\":645:678   */\n      tag_32\n        /* \"#utility.yul\":672:677   */\n      dup2\n        /* \"#utility.yul\":645:678   */\n      tag_20\n      jump\t// in\n    tag_32:\n        /* \"#utility.yul\":545:684   */\n      swap3\n      swap2\n      pop\n      pop\n      jump\t// out\n        /* \"#utility.yul\":690:1164   */\n    tag_6:\n        /* \"#utility.yul\":758:764   */\n      0x00\n        /* \"#utility.yul\":766:772   */\n      0x00\n        /* \"#utility.yul\":815:817   */\n      0x40\n        /* \"#utility.yul\":803:812   */\n      dup4\n        /* \"#utility.yul\":794:801   */\n      dup6\n        /* \"#utility.yul\":790:813   */\n      sub\n        /* \"#utility.yul\":786:818   */\n      slt\n        /* \"#utility.yul\":783:902   */\n      iszero\n      tag_34\n      jumpi\n        /* \"#utility.yul\":821:900   */\n      tag_35\n      tag_17\n      jump\t// in\n    tag_35:\n        /* \"#utility.yul\":783:902   */\n    tag_34:\n        /* \"#utility.yul\":941:942   */\n      0x00\n        /* \"#utility.yul\":966:1019   */\n      tag_36\n        /* \"#utility.yul\":1011:1018   */\n      dup6\n        /* \"#utility.yul\":1002:1008   */\n      dup3\n        /* \"#utility.yul\":991:1000   */\n      dup7\n        /* \"#utility.yul\":987:1009   */\n      add\n        /* \"#utility.yul\":966:1019   */\n      tag_21\n      jump\t// in\n    tag_36:\n        /* \"#utility.yul\":956:1019   */\n      swap3\n      pop\n        /* \"#utility.yul\":912:1029   */\n      pop\n        /* \"#utility.yul\":1068:1070   */\n      0x20\n        /* \"#utility.yul\":1094:1147   */\n      tag_37\n        /* \"#utility.yul\":1139:1146   */\n      dup6\n        /* \"#utility.yul\":1130:1136   */\n      dup3\n        /* \"#utility.yul\":1119:1128   */\n      dup7\n        /* \"#utility.yul\":1115:1137   */\n      add\n        /* \"#utility.yul\":1094:1147   */\n      tag_21\n      jump\t// in\n    tag_37:\n        /* \"#utility.yul\":1084:1147   */\n      swap2\n      pop\n        /* \"#utility.yul\":1039:1157   */\n      pop\n        /* \"#utility.yul\":690:1164   */\n      swap3\n      pop\n      swap3\n      swap1\n      pop\n      jump\t// out\n        /* \"#utility.yul\":1170:1350   */\n    tag_22:\n        /* \"#utility.yul\":1218:1295   */\n      0x4e487b7100000000000000000000000000000000000000000000000000000000\n        /* \"#utility.yul\":1215:1216   */\n      0x00\n        /* \"#utility.yul\":1208:1296   */\n      mstore\n        /* \"#utility.yul\":1315:1319   */\n      0x11\n        /* \"#utility.yul\":1312:1313   */\n      0x04\n        /* \"#utility.yul\":1305:1320   */\n      mstore\n        /* \"#utility.yul\":1339:1343   */\n      0x24\n        /* \"#utility.yul\":1336:1337   */\n      0x00\n        /* \"#utility.yul\":1329:1344   */\n      revert\n        /* \"#utility.yul\":1356:1550   */\n    tag_15:\n        /* \"#utility.yul\":1396:1400   */\n      0x00\n        /* \"#utility.yul\":1416:1436   */\n      tag_40\n        /* \"#utility.yul\":1434:1435   */\n      dup3\n        /* \"#utility.yul\":1416:1436   */\n      tag_19\n      jump\t// in\n    tag_40:\n        /* \"#utility.yul\":1411:1436   */\n      swap2\n      pop\n        /* \"#utility.yul\":1450:1470   */\n      tag_41\n        /* \"#utility.yul\":1468:1469   */\n      dup4\n        /* \"#utility.yul\":1450:1470   */\n      tag_19\n      jump\t// in\n    tag_41:\n        /* \"#utility.yul\":1445:1470   */\n      swap3\n      pop\n        /* \"#utility.yul\":1494:1495   */\n      dup3\n        /* \"#utility.yul\":1491:1492   */\n      dup3\n        /* \"#utility.yul\":1487:1496   */\n      sub\n        /* \"#utility.yul\":1479:1496   */\n      swap1\n      pop\n        /* \"#utility.yul\":1518:1519   */\n      dup2\n        /* \"#utility.yul\":1512:1516   */\n      dup2\n        /* \"#utility.yul\":1509:1520   */\n      gt\n        /* \"#utility.yul\":1506:1543   */\n      iszero\n      tag_42\n      jumpi\n        /* \"#utility.yul\":1523:1541   */\n      tag_43\n      tag_22\n      jump\t// in\n    tag_43:\n        /* \"#utility.yul\":1506:1543   */\n    tag_42:\n        /* \"#utility.yul\":1356:1550   */\n      swap3\n      swap2\n      pop\n      pop\n      jump\t// out\n\n    auxdata: 0xa26469706673582212204739700e645d4bc3882f05066b9c26cabf44ffe1aa274325e287a5f2c86a1be264736f6c634300081e0033\n}\n",
				"bytecode": {
					"linkReferences": {},
					"object": "6080604052348015600e575f5ffd5b5061019e8061001c5f395ff3fe608060405234801561000f575f5ffd5b5060043610610029575f3560e01c806375184f0d1461002d575b5f5ffd5b610047600480360381019061004291906100ca565b610049565b005b808211610054575f5ffd5b610067818361006d90919063ffffffff16565b91505050565b5f8282111561007a575f5ffd5b5f82846100879190610135565b90508091505092915050565b5f5ffd5b5f819050919050565b6100a981610097565b81146100b3575f5ffd5b50565b5f813590506100c4816100a0565b92915050565b5f5f604083850312156100e0576100df610093565b5b5f6100ed858286016100b6565b92505060206100fe858286016100b6565b9150509250929050565b7f4e487b71000000000000000000000000000000000000000000000000000000005f52601160045260245ffd5b5f61013f82610097565b915061014a83610097565b925082820390508181111561016257610161610108565b5b9291505056fea26469706673582212204739700e645d4bc3882f05066b9c26cabf44ffe1aa274325e287a5f2c86a1be264736f6c634300081e0033",
					"opcodes": "PUSH1 0x80 PUSH1 0x40 MSTORE CALLVALUE DUP1 ISZERO PUSH1 0xE JUMPI PUSH0 PUSH0 REVERT JUMPDEST POP PUSH2 0x19E DUP1 PUSH2 0x1C PUSH0 CODECOPY PUSH0 RETURN INVALID PUSH1 0x80 PUSH1 0x40 MSTORE CALLVALUE DUP1 ISZERO PUSH2 0xF JUMPI PUSH0 PUSH0 REVERT JUMPDEST POP PUSH1 0x4 CALLDATASIZE LT PUSH2 0x29 JUMPI PUSH0 CALLDATALOAD PUSH1 0xE0 SHR DUP1 PUSH4 0x75184F0D EQ PUSH2 0x2D JUMPI JUMPDEST PUSH0 PUSH0 REVERT JUMPDEST PUSH2 0x47 PUSH1 0x4 DUP1 CALLDATASIZE SUB DUP2 ADD SWAP1 PUSH2 0x42 SWAP2 SWAP1 PUSH2 0xCA JUMP JUMPDEST PUSH2 0x49 JUMP JUMPDEST STOP JUMPDEST DUP1 DUP3 GT PUSH2 0x54 JUMPI PUSH0 PUSH0 REVERT JUMPDEST PUSH2 0x67 DUP2 DUP4 PUSH2 0x6D SWAP1 SWAP2 SWAP1 PUSH4 0xFFFFFFFF AND JUMP JUMPDEST SWAP2 POP POP POP JUMP JUMPDEST PUSH0 DUP3 DUP3 GT ISZERO PUSH2 0x7A JUMPI PUSH0 PUSH0 REVERT JUMPDEST PUSH0 DUP3 DUP5 PUSH2 0x87 SWAP2 SWAP1 PUSH2 0x135 JUMP JUMPDEST SWAP1 POP DUP1 SWAP2 POP POP SWAP3 SWAP2 POP POP JUMP JUMPDEST PUSH0 PUSH0 REVERT JUMPDEST PUSH0 DUP2 SWAP1 POP SWAP2 SWAP1 POP JUMP JUMPDEST PUSH2 0xA9 DUP2 PUSH2 0x97 JUMP JUMPDEST DUP2 EQ PUSH2 0xB3 JUMPI PUSH0 PUSH0 REVERT JUMPDEST POP JUMP JUMPDEST PUSH0 DUP2 CALLDATALOAD SWAP1 POP PUSH2 0xC4 DUP2 PUSH2 0xA0 JUMP JUMPDEST SWAP3 SWAP2 POP POP JUMP JUMPDEST PUSH0 PUSH0 PUSH1 0x40 DUP4 DUP6 SUB SLT ISZERO PUSH2 0xE0 JUMPI PUSH2 0xDF PUSH2 0x93 JUMP JUMPDEST JUMPDEST PUSH0 PUSH2 0xED DUP6 DUP3 DUP7 ADD PUSH2 0xB6 JUMP JUMPDEST SWAP3 POP POP PUSH1 0x20 PUSH2 0xFE DUP6 DUP3 DUP7 ADD PUSH2 0xB6 JUMP JUMPDEST SWAP2 POP POP SWAP3 POP SWAP3 SWAP1 POP JUMP JUMPDEST PUSH32 0x4E487B7100000000000000000000000000000000000000000000000000000000 PUSH0 MSTORE PUSH1 0x11 PUSH1 0x4 MSTORE PUSH1 0x24 PUSH0 REVERT JUMPDEST PUSH0 PUSH2 0x13F DUP3 PUSH2 0x97 JUMP JUMPDEST SWAP2 POP PUSH2 0x14A DUP4 PUSH2 0x97 JUMP JUMPDEST SWAP3 POP DUP3 DUP3 SUB SWAP1 POP DUP2 DUP2 GT ISZERO PUSH2 0x162 JUMPI PUSH2 0x161 PUSH2 0x108 JUMP JUMPDEST JUMPDEST SWAP3 SWAP2 POP POP JUMP INVALID LOG2 PUSH5 0x6970667358 0x22 SLT KECCAK256 SELFBALANCE CODECOPY PUSH17 0xE645D4BC3882F05066B9C26CABF44FFE1 0xAA 0x27 NUMBER 0x25 0xE2 DUP8 0xA5 CALLCODE 0xC8 PUSH11 0x1BE264736F6C634300081E STOP CALLER "
				},
				"gasEstimates": {
					"creation": {
						"codeDepositCost": "82800",
						"executionCost": "127",
						"totalCost": "82927"
					},
					"external": {
						"p5(uint256,uint256)": "infinite"
					}
				},
				"methodIdentifiers": {
					"p5(uint256,uint256)": "75184f0d"
				}
			},
			"storageLayout": {
				"storage": [],
				"types": null
			},
			"userdoc": {
				"kind": "user",
				"methods": {},
				"version": 1
			}
		}
	}
}