{
	"data": {
		"bytecode": {
			"linkReferences": {},
			"object": "6080604052348015600e575f5ffd5b506101b38061001c5f395ff3fe608060405234801561000f575f5ffd5b5060043610610029575f3560e01c806393f196281461002d575b5f5ffd5b610047600480360381019061004291906100c7565b610049565b005b8082101561008c576040517f08c379a00000000000000000000000000000000000000000000000000000000081526004016100839061015f565b60405180910390fd5b5050565b5f5ffd5b5f819050919050565b6100a681610094565b81146100b0575f5ffd5b50565b5f813590506100c18161009d565b92915050565b5f5f604083850312156100dd576100dc610090565b5b5f6100ea858286016100b3565b92505060206100fb858286016100b3565b9150509250929050565b5f82825260208201905092915050565b7f496e73756666696369656e742062616c616e63650000000000000000000000005f82015250565b5f610149601483610105565b915061015482610115565b602082019050919050565b5f6020820190508181035f8301526101768161013d565b905091905056fea264697066735822122051e544f4cfb4d12dcae861f00439914f32b39a47a162b6e269ee6b9a1591f2f364736f6c634300081e0033",
			"opcodes": "PUSH1 0x80 PUSH1 0x40 MSTORE CALLVALUE DUP1 ISZERO PUSH1 0xE JUMPI PUSH0 PUSH0 REVERT JUMPDEST POP PUSH2 0x1B3 DUP1 PUSH2 0x1C PUSH0 CODECOPY PUSH0 RETURN INVALID PUSH1 0x80 PUSH1 0x40 MSTORE CALLVALUE DUP1 ISZERO PUSH2 0xF JUMPI PUSH0 PUSH0 REVERT JUMPDEST POP PUSH1 0x4 CALLDATASIZE LT PUSH2 0x29 JUMPI PUSH0 CALLDATALOAD PUSH1 0xE0 SHR DUP1 PUSH4 0x93F19628 EQ PUSH2 0x2D JUMPI JUMPDEST PUSH0 PUSH0 REVERT JUMPDEST PUSH2 0x47 PUSH1 0x4 DUP1 CALLDATASIZE SUB DUP2 ADD SWAP1 PUSH2 0x42 SWAP2 SWAP1 PUSH2 0xC7 JUMP JUMPDEST PUSH2 0x49 JUMP JUMPDEST STOP JUMPDEST DUP1 DUP3 LT ISZERO PUSH2 0x8C JUMPI PUSH1 0x40 MLOAD PUSH32 0x8C379A000000000000000000000000000000000000000000000000000000000 DUP2 MSTORE PUSH1 0x4 ADD PUSH2 0x83 SWAP1 PUSH2 0x15F JUMP JUMPDEST PUSH1 0x40 MLOAD DUP1 SWAP2 SUB SWAP1 REVERT JUMPDEST POP POP JUMP JUMPDEST PUSH0 PUSH0 REVERT JUMPDEST PUSH0 DUP2 SWAP1 POP SWAP2 SWAP1 POP JUMP JUMPDEST PUSH2 0xA6 DUP2 PUSH2 0x94 JUMP JUMPDEST DUP2 EQ PUSH2 0xB0 JUMPI PUSH0 PUSH0 REVERT JUMPDEST POP JUMP JUMPDEST PUSH0 DUP2 CALLDATALOAD SWAP1 POP PUSH2 0xC1 DUP2 PUSH2 0x9D JUMP JUMPDEST SWAP3 SWAP2 POP POP JUMP JUMPDEST PUSH0 PUSH0 PUSH1 0x40 DUP4 DUP6 SUB SLT ISZERO PUSH2 0xDD JUMPI PUSH2 0xDC PUSH2 0x90 JUMP JUMPDEST JUMPDEST PUSH0 PUSH2 0xEA DUP6 DUP3 DUP7 ADD PUSH2 0xB3 JUMP JUMPDEST SWAP3 POP POP PUSH1 0x20 PUSH2 0xFB DUP6 DUP3 DUP7 ADD PUSH2 0xB3 JUMP JUMPDEST SWAP2 POP POP SWAP3 POP SWAP3 SWAP1 POP JUMP JUMPDEST PUSH0 DUP3 DUP3 MSTORE PUSH1 0x20 DUP3 ADD SWAP1 POP SWAP3 SWAP2 POP POP JUMP JUMPDEST PUSH32 0x496E73756666696369656E742062616C616E6365000000000000000000000000 PUSH0 DUP3 ADD MSTORE POP JUMP JUMPDEST PUSH0 PUSH2 0x149 PUSH1 0x14 DUP4 PUSH2 0x105 JUMP JUMPDEST SWAP2 POP PUSH2 0x154 DUP3 PUSH2 0x115 JUMP JUMPDEST PUSH1 0x20 DUP3 ADD SWAP1 POP SWAP2 SWAP1 POP JUMP JUMPDEST PUSH0 PUSH1 0x20 DUP3 ADD SWAP1 POP DUP2 DUP2 SUB PUSH0 DUP4 ADD MSTORE PUSH2 0x176 DUP2 PUSH2 0x13D JUMP JUMPDEST SWAP1 POP SWAP2 SWAP1 POP JUMP INVALID LOG2 PUSH5 0x6970667358 0x22 SLT KECCAK256 MLOAD JUMPF 0x44F4 0xCF 0xB4 DATALOADN 0x2DCA 0xE8 PUSH2 0xF004 CODECOPY SWAP2 0x4F ORIGIN 0xB3 SWAP11 SELFBALANCE LOG1 PUSH3 0xB6E269 RETURNCONTRACT 0x6B SWAP11 ISZERO SWAP2 CALLCODE RETURN PUSH5 0x736F6C6343 STOP ADDMOD 0x1E STOP CALLER "
		},
		"gasEstimates": {
			"creation": {
				"codeDepositCost": "87000",
				"executionCost": "133",
				"totalCost": "87133"
			},
			"external": {
				"p4(uint256,uint256)": "infinite"
			}
		},
		"methodIdentifiers": {
			"p4(uint256,uint256)": "93f19628"
		}
	},
	"abi": [
		{
			"inputs": [
				{
					"internalType": "uint256",
					"name": "balance",
					"type": "uint256"
				},
				{
					"internalType": "uint256",
					"name": "amount",
					"type": "uint256"
				}
			],
			"name": "p4",
			"outputs": [],
			"stateMutability": "nonpayable",
			"type": "function"
		}
	]
}